:020000040800F2
:100000008016002081650008896500088B6500085E
:100010008D6500088F6500089165000800000000EC
:1000200000000000000000000000000093650008D0
:1000300095650008000000009765000881380008F9
:100040009B6500089B6500089B6500089B65000890
:100050009B6500089B6500085D2000089B65000803
:100060009B6500089B6500089B6500089B65000870
:10007000870900089B65000899090008B90900086C
:10008000CB090008DD0900089B6500089B65000896
:100090009B6500089B6500089B65000873200008AD
:1000A0009B6500089B6500089B6500089B65000830
:1000B0009B6500089B6500089B6500083F090008D8
:1000C0006309000851090008750900089B650008CC
:1000D0009B650008090900081B0900082D09000894
:1000E0009B6500089B6500089B65000800F002F80E
:1000F00000F043F80AA090E8000C82448344AAF17F
:100100000107DA4501D100F038F8AFF2090EBAE87C
:100110000F0013F0010F18BFFB1A43F0010318473B
:10012000887F0000A87F0000103A24BF78C878C1FB
:10013000FAD8520724BF30C830C144BF04680C60ED
:10014000704700000023002400250026103A28BF35
:1001500078C1FBD8520728BF30C148BF0B60704739
:100160001FB59DE8030006F025FC06F08DFB1FBDC2
:1001700010B5002006F0D8FB10BD06F078FC114643
:10018000FFF7EEFF02F0D7FB06F0B0FC03B4FFF779
:10019000EFFF03BC06F0E8FC7047FE4AD0F84813B6
:1001A000914203D10021FC4A116010E0FB4AD0F8D3
:1001B0004813914203D10021F94A116007E0F94A3E
:1001C000D0F84813914202D10021F74A11607047DC
:1001D0002DE9F04F93B004460E4692469B461F9F72
:1001E000204606F04EFE044604F5CC7006F049FEAB
:1001F000A0F5CC74002084F8540384F855B3032090
:1002000084F8560318208DF84B0003208DF84A001F
:100210008DF8460004208DF84700012E35D1DD48C9
:10022000C4F848034FF0250894F8550350B1DF484F
:10023000C4F844034FF00E097003C4F84C03401097
:10024000C4F85003D4480460012F10D1012144F2B6
:10025000090005F01FF80121042004F02EFC4020C5
:10026000ADF848008020ADF84400D14DA1E0012157
:1002700044F2050005F00EF84FF40070ADF84800A8
:100280004000ADF84400CB4D93E0022E3BD1C34873
:10029000C4F848034FF0260894F8550358B1C348F2
:1002A0003C30C4F844034FF011098004C4F84C03F7
:1002B0004010C4F85003BA480460012F13D1012143
:1002C000480404F0F4FF0121212004F0E3FF0121A0
:1002D000082004F0F2FB2020ADF848004020ADF8E3
:1002E0004400B54D65E00121480404F0E0FF012120
:1002F000052004F0CFFF0420ADF848000820ADF839
:100300004400AC4D55E0032E53D1A648C4F8480331
:100310004FF0270894F8550358B1A4482838C4F87A
:1003200044034FF00C092020C4F84C031020C4F8FB
:1003300050039D480460012F13D10121880404F06B
:10034000B6FF0121112004F0A5FF01219B4804F014
:10035000B4FBB802ADF848004000ADF84400984D39
:1003600027E0112F15D10121880404F0A0FF0121FD
:10037000212004F08FFF01219048203004F09DFBE4
:100380004FF48070ADF848004000ADF844008A4D4D
:100390000FE00121880404F08AFF0121092004F004
:1003A00079FF4FF48060ADF848004000ADF844009C
:1003B0007F4D12A9284604F0AFFA11A9284604F08F
:1003C000ABFACDF834A02198ADF838002298ADF8FA
:1003D0003A002098ADF83C000020ADF840000C2019
:1003E000ADF83E000DA9D4F8480305F008FF01213F
:1003F000D4F8480305F08FFF94F8550340B3012269
:100400008021D4F8480305F0B7FF0121084604F025
:1004100034FFD4F84803001D019004F54C7002909D
:10042000102003900020049005908020069000206A
:100430000790089009900A900B9001A9D4F8440302
:1004400004F0F4F80021D4F8440304F01AF906E0AB
:10045000002240F22661D4F8480305F068FF1C989A
:1004600030B1012809D002280CD004280FD113E0A4
:100470004FF4E06003F0A2FD13E04FF4C06003F01E
:100480009DFD0EE04FF4A06003F098FD09E04FF4ED
:10049000806003F093FD04E04FF4407003F08EFDA4
:1004A00000BF00BF8DF830801D988DF831001E9878
:1004B0008DF8320001208DF833000CA803F083FD85
:1004C000012240F22551D4F8480305F030FF94F89A
:1004D0005503D0B18DF830901D988DF831001E98DD
:1004E0008DF832000CA803F06EFDD4F844030068C8
:1004F00040F00200D4F844130860D4F844030068C4
:1005000040F00800D4F844130860204613B0BDE85A
:10051000F08F2DE9F04104460E461546AAB2314649
:10052000204606F082FC94F8550378B394F85403FF
:1005300060BB204606F0A1FC002827DD012084F8DE
:100540005403204606F099FC142810DC204606F0DF
:1005500094FCD4F844134860204606F08EFC07460D
:100560003A4604F54C71204606F03AFC09E01420A6
:10057000D4F844134860142204F54C71204606F068
:100580002FFC0121D4F8440304F07BF894F85503C0
:10059000F0BB17E000380140040000200044004098
:1005A00008000020004800400C00002044000240E9
:1005B000000C01400008014000140140100014002C
:1005C0000010014094F8540310BB204606F055FC7F
:1005D000002820DD40F22661D4F8480305F0B6FF7C
:1005E000012240F22661D4F8480305F0A0FE402124
:1005F000D4F8480305F06AFF012084F85403BE498B
:10060000204606F0AEFBBC490978D4F8480300E068
:1006100001E005F0EDFE0120BDE8F08170B5044673
:100620000E46154604F5CC7006F027FCA84201DA08
:10063000002070BD2A46314604F5CC7006F0D0FB90
:100640000120F6E710B5044604F5CC7006F015FC61
:1006500010BD38B5044640F22551D4F8480305F0E2
:100660004BFF88B1D4F8480305F0C6FEC0B2694616
:10067000009004F5CC7006F092FB40F22551D4F8BE
:10068000480305F063FF00BF40F22771D4F8480328
:1006900005F032FFE0B1204606F0EFFB002809DD4F
:1006A0009649204606F05DFB94490978D4F8480342
:1006B00005F09EFE204606F0E0FB48B9002240F21D
:1006C0002771D4F8480305F032FE002084F8540363
:1006D00040F22661D4F8480305F00EFFE0B1204651
:1006E00006F0CBFB002809DD8549204606F039FBE2
:1006F00083490978D4F8480305F07AFE204606F0CD
:10070000BCFB48B9002240F22661D4F8480305F04A
:100710000EFE002084F8540338BD70B50446D4F8AA
:100720004C0303F0C9FF01283AD1D4F8500303F079
:10073000F6FFD4F84C0303F0D3FF0021D4F84403B0
:1007400003F09FFF204606F098FB002825DD204699
:1007500006F093FB142810DC204606F08EFBD4F83C
:1007600044134860204606F088FB05462A4604F5F7
:100770004C71204606F034FB09E01420D4F84413F1
:100780004860142204F54C71204606F029FB012133
:10079000D4F8440303F075FF02E0002084F854030A
:1007A00070BDFEB506460C4600270025002C01DA78
:1007B0000127644200BF681CC5B20A2094FBF0F117
:1007C00000FB11403030C0B2C5F10A010DF8010044
:1007D0000A2094FBF0F4002CEDD1012F07D12D213C
:1007E000681CC0B20546C0F10A000DF800100DF1FA
:1007F0000A00411B2A463046FFF78BFE3046FEBDFD
:100800002DE9F04786B0804614461D464FF0000A99
:100810000026002213462046294606F0C9FD03D2D1
:100820004FF0010A85F0004598F8569307E0002242
:10083000344B2046294606F0F7FD04460D46B9F133
:100840000000A9F1010101F0FF09F0D1204629467D
:1008500006F06EFD074600BF701CC1B20E4698F848
:100860005603401C814205D12E20C6F1140101AA75
:1008700050540CE00A20B7FBF0F100FB117030304F
:10088000C6F1140101AA50540A20B7FBF0F7002F5B
:10089000E2D198F85603801CB042DDDCBAF1010FBA
:1008A00007D12D21701CC0B20646C0F1140001AA68
:1008B000115406A8811B32464046FFF72AFE4046E7
:1008C00006B0BDE8F08780F85613704770B506464D
:1008D0000C460025002001E06D1C401C215C002915
:1008E000FAD12A4621463046FFF713FE304670BD46
:1008F000014691F8550370470000002001000020D8
:10090000020000200000244010B53C48006818B1E7
:100910003A480068FFF79DFE10BD10B538480068E2
:1009200018B137480068FFF794FE10BD10B5354880
:10093000006818B133480068FFF78BFE10BD10B592
:100940003148006818B13048006800F0BAFF10BDA7
:1009500010B52E48006818B12C48006800F0B1FFAF
:1009600010BD10B52848006818B12748006801F08C
:10097000A7F910BD10B52548006818B123480068D4
:1009800001F09EF910BD10B51E48006818B11D4851
:100990000068FFF7C2FE10BD10B51848006818B116
:1009A00016480068FFF7B9FE1848006818B11748E4
:1009B000006801F0B3F910BD10B51448006818B113
:1009C0001248006801F0B1F910BD10B50E4800687A
:1009D00018B10D48006801F0A1F910BD10B5084824
:1009E000006818B106480068FFF797FE06480068DF
:1009F00018B10548006801F098F910BD0400002006
:100A0000080000200C00002010000020140000202E
:100A10002DE9F04704460E461746E08807F0B6F881
:100A20008146D849384606F0B7FF8246494607F066
:100A3000F5F8804607F072F885B2012E06D0022E36
:100A400007D0032E08D0042E0DD108E0206885863B
:100A500009E02068058706E02068858703E02068B4
:100A6000A0F8405000BF00BFBDE8F0872DE9FF5F50
:100A700004460D4616461F46DDF83880E08807F02C
:100A800085F8C0490190284606F086FF009001993C
:100A900007F0C4F8834607F041F81FFA80F9E088B0
:100AA00007F074F8B7490190304606F075FF0090E2
:100AB000019907F0B3F8834607F030F81FFA80FA7F
:100AC000E08807F063F8AF490190384606F064FF0C
:100AD0000090019907F0A2F8834607F01FF880B252
:100AE0000390E08807F052F8A6490190404606F0CE
:100AF00053FF0090019907F091F8834607F00EF834
:100B000080B202902068A0F834902068A0F838A045
:100B100003982168888702982168A1F84000BDE801
:100B2000FF9F2DE9F05F04460D4616461F46DDE99E
:100B30000CABDDE90A8925600121042004F0AAFB41
:100B40000121082004F0A6FB0121084604F0A2FBC5
:100B5000B5F1804F1CD10121084604F0A8FB06F036
:100B60000100022101EA47010843042101EA88014A
:100B70000843082101EAC901084320810321A17229
:100B80001821E17204F108017F4803F0C5FE48E036
:100B90007E48854225D10121022004F088FB4020B7
:100BA00000EA8610802101EAC71108432081032151
:100BB000A1721821E17204F10801734803F0ACFE40
:100BC00008F00100022101EA4901084320810321C4
:100BD000A1721821E17204F108016D4803F09CFE36
:100BE0001FE06C4885421CD10121042004F05FFB0A
:100BF000402000EA8610802101EAC7110843A915A8
:100C000001EA08210843691501EA492108432081C6
:100C10000321A1721821E17204F108015C4803F07C
:100C20007BFEE088401E2082A088401EA08100211B
:100C30006182E18104F10C01284604F063FC60202C
:100C4000E082012121830021E183E08800EBD07163
:100C50004910A18304F11601284604F090FC0821F4
:100C6000284605F0DBF8E08800EBD0714910A1833D
:100C700004F11601284604F0C4FC0821284605F0BA
:100C8000D6F8E08800EBD0714910A18304F1160179
:100C9000284604F003FD0821284605F0D5F8E08831
:100CA00000EBD0714910A18304F11601284604F02D
:100CB00040FD0821284605F0D0F80121284604F01F
:100CC0007DFFBDE8F09FF0B50446059D012012E0D0
:100CD000B1FBF0F600FB16165EB9B1FBF0F64FF66D
:100CE000FF77BE4205D2A080B1FBF0F6E680012579
:100CF00004E0461CB0B2B0F5966FE9DD00BFCDB997
:100D0000012013E0B1FBF0F2B1FBF0F600FB16138B
:100D10004FF6FF76B24207D247F6F676B34203D2D9
:100D2000A080E280012504E0461CB0B2B0F5966FC9
:100D3000E8DD00BFF0BD2DE9F84780460C460025F0
:100D4000154890FBF4F690FBF4F104FB11074FF00B
:100D500000094FF0000A3FB953464A463146404623
:100D60000095FFF7B0FF0AE0B7F5004F00D9761CF9
:100D700053464A46314640460095FFF7A4FFBDE87A
:100D8000F88700000000C84200080140000400404D
:100D9000000C01400008004000A24A0430B591B0A8
:100DA00004460D460121084604F067FA0121480275
:100DB00004F070FA0121084604F06CFA4FF4004088
:100DC00004F0CCF97F4803F08FFB7F480190029438
:100DD0000020039094F824000490002005908020C7
:100DE00006904000079080000890202009900002A3
:100DF0000A9000200B9001A9724803F017FC012112
:100E0000704803F03EFC00200C9001208DF8340067
:100E10008DF835004FF460200E9000200F9094F86C
:100E200024008DF840000CA967484C3803F05BF9AA
:100E30000AE094F82430206AC15C581CC2B207232F
:100E400061484C3803F0E7F914F8241F2078401E5D
:100E500004F824090029ECD101215B484C3803F047
:100E600079F9012158484C3803F069F956484C3853
:100E700003F087F900BF54484C3803F087F9002885
:100E8000F9D151484C3803F08BF900BF4E484C382B
:100E900003F08BF90028F9D101214B484C3803F0BD
:100EA0008EF911B030BD2DE9FF4F85B004468A465A
:100EB00093460027002502AEA846A94686F800A062
:100EC00086F801B00898B0701298F07013983071DD
:100ED000149870711598B0711698F0711798307257
:100EE0001898707242E0F01910F8010C217D8842C8
:100EF00004DDF01910F8010C002837DDF01910F8A6
:100F0000010C216A4855206A405D082812DA2F48F2
:100F10000068A16941F82500206A405D2C4931F83C
:100F20001000E16921F81500E06930F8150040EA89
:100F3000080819E0206A405D082803D0206A405D57
:100F4000092811D121484068A16941F82500206A8B
:100F5000405D1F4931F81000E16921F81500E06992
:100F600030F8150040EA0909681CC5B23846791CFA
:100F7000CFB20A28B7D184F8245000270025B8F151
:100F8000000F0CD00121042004F084F9ADF8048096
:100F900000208DF8070001A90E4803F0BDFCB9F14F
:100FA000000F0CD00121082004F074F9ADF8049072
:100FB00000208DF8070001A9074803F0ADFC09B037
:100FC000BDE8F08F080002404C24014018000020CA
:100FD0002400002000080140000C014010B5044628
:100FE00057496068884204D10121042004F052F975
:100FF00034E054496068884204D10121082004F09B
:1010000049F92BE050496068884204D10121102041
:1010100004F040F922E04D496068884204D1012182
:10102000202004F037F919E049496068884204D16A
:101030000121402004F02EF910E046496068884202
:1010400004D10121802004F025F907E042496068BD
:10105000884203D10121801504F01CF910BD2DE94F
:10106000F84304460F4615461E46DDF820802670DC
:1010700084F80180676025812046FFF7AFFF37487D
:1010800030F81500ADF800008DF802808DF803608F
:101090006946606803F040FC2046BDE8F88370B5FF
:1010A00004460D46002D07DD22892C4B33F8121023
:1010B000606803F0DEFC06E02289284B33F812104A
:1010C000606803F0D8FC70BD10B504462289234B3C
:1010D00033F81210606803F0B2FC08B9002010BDAC
:1010E0000120FCE710B5044622891C4B33F812108E
:1010F000606803F0A4FC38B12289184B33F8121051
:10110000606803F0B8FC06E02289144B33F8121033
:10111000606803F0AEFC10BD38B504460D4620896A
:101120000E4931F81000ADF8000060788DF802002B
:101130008DF803506946606803F0EEFB38BD00008F
:1011400000080140000C0140001001400014014063
:1011500000180140001C01400020014012800008DE
:101160000168098841F4004102681180016809881A
:1011700021F40041026811807047F8B506460C461C
:10118000154603208DF8020004208DF80300ADF809
:1011900000406946FE4803F0BFFBADF800506946C9
:1011A000FB4803F0B9FBF8BDF8B504460D461646FA
:1011B0000121082004F06EF8F6492068884209D120
:1011C000207A38B10121084604F064F80121022098
:1011D00003F073FC03208DF802001C208DF803003F
:1011E000ADF800506946EA4803F096FBADF80060A0
:1011F0006946E74803F090FBF8BD70B505460C461C
:10120000204601F033FB70BD2DE9F84307468846C0
:1012100015461C46002648E00021404604F047F8E9
:101220000121082004F036F803208DF80200102078
:101230008DF80300ADF800506946D54803F06CFB0B
:10124000ADF800406946D24803F066FB2946D04815
:1012500003F011FC2146CE4803F00DFC0521384671
:10126000FFF7CBFF2946CA4803F003FC05213846A7
:10127000FFF7C3FF2146C64803F0FBFB05213846B4
:10128000FFF7BBFF224629463846FFF776FF0121CC
:10129000404604F026F80021404604F022F80121DF
:1012A000404604F004F8701CC6B24FF400313868B0
:1012B00003F03EFE08B1142EAEDB142E02D1002046
:1012C000BDE8F8830120FBE770B505460C462046D3
:1012D00001F0BCFA70BD70B505460C46204601F021
:1012E000D5FA70BD0146AC4A0868904201D102208F
:1012F00070470120FCE72DE9F04F91B004462046ED
:10130000FFF7F0FF012813D147054FF01F0A4FF0F8
:10131000200B607A18B14FF010084FF01109207AB5
:1013200018B14FF480756E0012E0402580260FE062
:101330004FF480073D136E004FF0210A4FF0220B4F
:10134000607A18B14FF00E084FF00F09934804600F
:101350002046FFF705FF2068008820F00100216883
:101360000880607A38B1D4F8B40203F0BDF8D4F83C
:10137000B80203F0B9F80121384603F0B2FF0021AA
:10138000384603F0AEFF0121384603F090FF3346A4
:101390002A4639462046FFF737FF28B91020207427
:1013A000002011B0BDE8F08F324629462046FFF7F5
:1013B000FBFE607A28B12068808840F400602168D4
:1013C000888060680D900020ADF838004BF6FF7003
:1013D000ADF83A000020ADF83C004FF48060ADF865
:1013E0003E000001ADF840000DA9206803F0FBFBB2
:1013F000607A10B30121084603F03FFF00200590FA
:101400000690802007900020089009904FF44050EB
:101410000B9000200A900C90206810300290102051
:10142000049002A9D4F8B40203F000F9002004905B
:1014300002A9D4F8B80203F0F9F801208DF80700EA
:101440008DF804A0A07A8DF80500E07A8DF80600EA
:1014500001A802F0B8FD2068808840F4007021687F
:1014600088808DF804B0207B8DF80500607B8DF8B6
:10147000060001A802F0A7FD2068808840F4807073
:1014800021688880607A30B12068808820F480608C
:101490002168888005E02068808840F480602168A9
:1014A0008880607AA8B38DF80480A07B8DF8050051
:1014B000E07B8DF8060001A802F085FDD4F8B402A7
:1014C000006840F00200D4F8B4120860D4F8B40206
:1014D000006840F00800D4F8B41208608DF8049059
:1014E000A07B8DF80500E07B8DF8060001A802F0D6
:1014F0006AFDD4F8B802006840F00200D4F8B812CF
:101500000860D4F8B802006840F00800D4F8B812B7
:1015100008600120207400BF43E72DE9F05F044616
:101520000D4616461F46DDE90CABDDE90A8904F1DC
:10153000140005F00BFCA0F114046672607AB8B1D7
:1015400000214FF4337001514FF437700151802165
:101550004FF4347001510021001D0151001D015153
:101560004FF440514FF4387001510021001D0151DA
:101570006760012D25D107482060607AB8B108481E
:10158000C4F8B40206481430C4F8B802800409E074
:10159000000C01400054004000580040140000209E
:1015A0006C000240C4F8AC020011C4F8B002FE485E
:1015B0000460B8F1000F01D0012000E0002020728B
:1015C00015E0FA482060607A68B1F948C4F8B402BE
:1015D000F7481430C4F8B8024FF40030C4F8AC0235
:1015E0000011C4F8B002F34804600020207284F8AF
:1015F0000AA084F80BB00E9820730F9860731098AF
:10160000A0731198E0732046FFF775FEB9F1000F43
:1016100009D0B9F1010F0BD0B9F1020F0DD0B9F11A
:10162000040F0FD113E04FF4E06002F0C7FC13E0A9
:101630004FF4C06002F0C2FC0EE04FF4A06002F074
:10164000BDFC09E04FF4806002F0B8FC04E04FF408
:10165000407002F0B3FC00BF00BF607A18B1206890
:101660001030C4F8BC022046BDE8F09F0146087C5B
:10167000102801D1002070470120FCE710B5044676
:101680002046FFF7F3FF08B9022010BD04F1140053
:1016900005F050FB002801DD0020F6E70120F4E70B
:1016A00010B50446207C102801D1002010BD207CFC
:1016B00022280AD12068808A38B92068008B20B996
:1016C000102020742046FFF74BFD2068008B00F0AF
:1016D0000300022806D1102020742046FFF740FDA9
:1016E0000020E3E7207C012826D104F1140005F056
:1016F00021FB002820DD4FF40031206803F018FCA6
:1017000030B1102020742046FFF72AFD0020CDE7DD
:1017100004F5277104F1140005F0C6FA20202074A6
:10172000002060820121206803F017FB012120685E
:1017300003F0FBFA0120B9E704F1140005F0FAFA0E
:1017400008B90220B2E70120B0E710B5044604F161
:10175000140005F0F3FA10BD2DE9F04705460F46D9
:1017600090461E464FF000094FF0010A21E000BFED
:101770002846FFF783FF0446012C0AD18246287CC5
:10178000012800D116E0287C102807D14FF0000A6C
:1017900010E0022C02D14FF0000A0BE009F1010029
:1017A0001FFA80F94FF6FE70814502DD4FF0000A06
:1017B00000E0DCE700BFBAF1010F17D0B8F1000F6D
:1017C00002D02846FFF7C1FF06B1012717B128460E
:1017D000FFF791FD3EB12846FFF750FF18B92846A4
:1017E000FFF75EFFC4E70020BDE8F0870120FBE7BC
:1017F0002DE9FF5F82460F4690461D46DDE90FB991
:101800000E9EB8F1FF0F18D106208DF800000020C1
:101810008DF80C008DF807600290002408E029780C
:101820000DF1020001552878401C2870601CC4B2DC
:10183000B442F4DB8DF801703AE0012E20DB03D1D5
:1018400004208DF8000002E005208DF80000002043
:101850008DF80C00701CC0B28DF8070000200290BB
:101860008DF80280012406E029780DF1020001556F
:101870006D1C601CC4B2B442F6DD8DF8017017E037
:10188000B9F1010F03DD02208DF8000005E0B9F188
:10189000010F02D101208DF800008DF80C9001207D
:1018A0008DF80700CDF808B08DF802808DF8017032
:1018B00069460AF1140005F019FA012004B0BDE8E8
:1018C000F09F10B50446206803F025FB3A490860F4
:1018D00008463A4A0168881A914271D008DC1029FA
:1018E0006FD06FF44030084460B101286AD1BCE089
:1018F000042868D0A0F580204238002873D0022840
:10190000F4D132E1207C20283DD1607A58B12068A2
:10191000808820F48060216888802068808840F476
:1019200000602168888040F29D22115D00222068BD
:1019300003F051FA22202074607A002822D094F813
:101940009C02042806DB40F2A320015D4FF43270B4
:10195000015103E001214FF43270015104F29E2045
:101960004FF43071085110214FF43170015104F5DA
:101970002F71D4F8B40202F059FE0121D4F8B40258
:1019800002F07FFE5CE0207C212859D140F29D22AC
:10199000115D0122206803F01EFA30202074607A65
:1019A00000B394F89C020FE01000002000580040A3
:1019B00044000240140000204400002040000300C6
:1019C00060E06DE172E167E101280DD12068808857
:1019D00040F48060216888802068808820F400605E
:1019E000216888802CE02CE02068808840F48050BA
:1019F000216888802068808820F480602168888041
:101A00002068808840F40060216888804FF42A7044
:101A1000015D4FF4327001514FF4297001594FF4B8
:101A2000307001510021001D015104F52F71D4F8CF
:101A3000B80202F0FBFD0121D4F8B80202F021FE49
:101A400034E1607A80B940F29E22115D206803F093
:101A5000BCF9608A401C608240F2A320005D401EF9
:101A6000C1B240F2A320015520E194F89C02012864
:101A700007D10021206803F070F90121206803F0EC
:101A800060F913E1207C30286ED1607A60B394F85D
:101A90009C02012868D1206803F099F94FF429715C
:101AA000095908702068808820F480602168888047
:101AB00004F1140005F03EF9002812DD04F5277149
:101AC00004F1140005F0F0F820202074002060825A
:101AD0000121206803F041F90121206803F025F974
:101AE00042E0012020743FE0206803F070F94FF4D9
:101AF0002971095908704FF429700059401C4FF49E
:101B000029710851081D005D401EC1B24FF42A70B2
:101B10000155005D012808D10021206803F01DF95E
:101B20000121206803F00DF91EE04FF42A70005DDA
:101B3000D0B904F1140005F0FDF8002812DD04F519
:101B4000277104F1140005F0AFF820202074002064
:101B500060820121206803F000F90121206803F070
:101B6000E4F801E001202074A0E0207C222879D153
:101B7000607A88B3D4F8B40202F09AFD00282AD122
:101B8000207C2228FBD10021D4F8B40202F079FD98
:101B900094F89C02042823DB0121206803F0D1F88B
:101BA00004F1140005F0C6F8002816DD04F52771CD
:101BB00004F1140005F078F82020207400206082E1
:101BC0000121206803F0C9F8206803F0A4F901217D
:101BD000206803F0AAF85EE009E0012020745AE0D2
:101BE000212020740121206803F09FF853E040F287
:101BF000A320005D002811DD638A5A1C628204F272
:101C00009E22D15C206803F0E0F840F2A320005D42
:101C1000401EC1B240F2A32001553CE094F89C0262
:101C2000042823DB0121206803F08BF804F1140061
:101C300005F080F8002816DD04F5277104F1140082
:101C400005F032F8202020740020608201212068F5
:101C500003F083F8206803F05EF90121206803F0A7
:101C600064F818E009E00120207414E021202074B9
:101C70000121206803F059F80DE046480078401C27
:101C80004449087008460078032804DD2046FFF721
:101C900067FA1020207409E0206803F098F805E046
:101CA0002046FFF75DFA1020207400BF00BF3A48BD
:101CB00000683A49884202D000203649087010BDB9
:101CC00010B503461868808A00F470644FF2FF0074
:101CD0001968888204F4807058B11868008840F44C
:101CE0000040196808801868008820F400401968CE
:101CF000088004F4007058B11868008840F400406F
:101D0000196808801868008820F400401968088065
:101D10001846FFF725FA1020187410BD20490968ED
:101D20001F4909681E4A5160704710B504461C4897
:101D30000068D4F8AC12084018B30021D4F8B802F7
:101D400002F09FFC0121206802F0FBFF04F1140067
:101D500004F0F0FF002815DD04F5277104F11400EC
:101D600004F0A2FF2020207400206082206803F08D
:101D7000D2F80121206802F0F0FF0121206802F072
:101D8000D4FF01E001202074054800680449486040
:101D900010BD00004800002044000020840007001F
:101DA0000000024010B51A48006818B118480068D1
:101DB00000F0CDF810BD10B51648006818B11548F0
:101DC000006800F0C4F810BD10B51348006818B1E1
:101DD0001148006800F0BBF810BD10B50F4800684E
:101DE00018B10E48006800F0B2F810BD10B50C48EC
:101DF000006818B10A48006800F0A9F810BD10B5D5
:101E00000848006818B10748006800F0A0F810BD45
:101E10004C000020500000205400002058000020FA
:101E20005C0000206000002070B50446A07D20B159
:101E30000020A0757C48A0611BE0607DC8B12069CE
:101E400005F010FD0546794A794B05F0EBFB0DD204
:101E5000206905F007FD0546764A774B05F0A8FA9C
:101E600004D27649206905F0D9FEA06100202061E6
:101E7000607570BD2DE9F04385B004460D461646E9
:101E80001F46DDE90C8925606660102000218DE881
:101E90008003CDE90310606802892823416804F1BA
:101EA000080000F00AFAA0F108046068008908B987
:101EB0006348046060680089401F052827D2DFE876
:101EC00000F0030A11181F0060680089052801D17D
:101ED0005C4804601BE060680089062801D15A480C
:101EE000046014E060680089072801D15748046045
:101EF0000DE060680089082801D15548046006E0BB
:101F000060680089092801D15248046000BF00BF01
:101F100000212068FFF7C3F800216068FFF7BFF8D1
:101F20000020A06120616075A075204605B0BDE865
:101F3000F08310B5044604F1080000F04FF904F1F5
:101F4000080000F0EDF9A0F10804204610BD2DE9CD
:101F5000F0478246DAF80400FFF7B6F850B101F016
:101F6000A5FC044604F0A6FFCAF8100001208AF878
:101F7000140029E0DAF8100005F074FC04460D4660
:101F800001F094FC064622462B4605F081FB804674
:101F900004F090FFCAF810009AF8140038B10AF162
:101FA000080000F01BF901208AF815000CE0DAF8AF
:101FB000100005F057FC04461E4A1F4B05F032FB8B
:101FC00002D801208AF81600BDE8F08710B5044653
:101FD0000020207500216068FFF761F8012120686A
:101FE000FFF75DF804F1080000F088F90F211A48A6
:101FF00001F098FC00212068FFF751F810BD10B5E2
:102000000446607D08B9A07D10B12046FFF70CFFA3
:10201000A06910BD10B504462046FFF7D7FF204643
:10202000FFF7EDFF10BD000000FF7F47691D554D14
:1020300010751F3FB81E85EB51B89E3F00D08446F7
:102040004C000020500000205400002058000020C8
:102050005C000020600000209800002010B50120E6
:1020600002F0E0FB20B1012002F0EDFBFFF79AFE49
:1020700010BD10B5202002F0D5FB20B1202002F0C9
:10208000E2FBFFF798FE402002F0CCFB20B140209D
:1020900002F0D9FBFFF798FE802002F0C3FB20B1CD
:1020A000802002F0D0FBFFF798FE4FF4807002F022
:1020B000B9FB28B14FF4807002F0C5FBFFF796FE24
:1020C0004FF4007002F0AEFB28B14FF4007002F044
:1020D000BAFBFFF794FE10BD10B504469449206882
:1020E000884204D10121042003F0D4F834E091495E
:1020F0002068884204D10121082003F0CBF82BE0AE
:102100008D492068884204D10121102003F0C2F8D3
:1021100022E08A492068884204D10121202003F06E
:10212000B9F819E086492068884204D1012140208D
:1021300003F0B0F810E083492068884204D10121FF
:10214000802003F0A7F807E07F492068884203D188
:102150000121801503F09EF80121084603F09AF84A
:1021600010BDF8B504460E4671492068884201D179
:10217000002522E06F492068884201D101251CE03A
:102180006D492068884201D1022516E06B4920681C
:10219000884201D1032510E069492068884201D1B5
:1021A00004250AE067492068884201D1052504E03A
:1021B00065492068884200D10625A088634931F826
:1021C0001000ADF800008DF803606946206802F049
:1021D000A3FB2179284602F0B5FCF8BD81885C4A52
:1021E00052F821105B4A11605A49143909688288F3
:1021F000574B53F822209143564A143A11607047C6
:102200007CB504460D461646A188514A52F8210075
:1022100002F019FBA0884E4951F8200000908DF87B
:1022200004508DF8056001208DF80600684602F024
:1022300093FA2046FFF7D2FF7CBD2DE9F84305460F
:102240000E4617469846A888102820D2DFE800F0EE
:10225000080A0C0E10121314151618191A1B1C1D3F
:10226000062416E0072414E0082412E0092410E0F4
:102270000A240EE000BF00BF00BF00BF172408E023
:1022800000BF00BF00BF00BF00BF282401E017242B
:1022900000BF00BF304951F8260001F08FFE8DF8D5
:1022A00000408DF801708DF8028001208DF8030048
:1022B000684601F088FEBDE8F8832DE9F05F04462A
:1022C0000D4616461F46DDE90CABDDE90A8925609F
:1022D000A6802046FFF700FF39462046FFF741FF62
:1022E00053464A4641462046FFF7A7FF5946204637
:1022F0000E9AFFF785FF2046BDE8F09F8188144ABB
:1023000052F82110134A1160124914390968828861
:102310000F4B53F8222011430E4A143A11607047B4
:1023200010B504462046FFF759FF204610BD0000B7
:1023300000080140000C0140001001400014014061
:1023400000180140001C014000200140748000087A
:10235000348000081404014094800008704730B5B0
:10236000039C01608371012A06D0022A07D0032A48
:1023700008D0042A0CD108E00125C57108E0022527
:10238000057205E00325457202E00425857200BF51
:1023900000BF30BD704710B50446E07920B1E17947
:1023A00000222068FEF734FB207A20B1217A002237
:1023B0002068FEF72DFB607A20B1617A0022206848
:1023C000FEF726FBA07A20B1A17A00222068FEF752
:1023D0001FFB012000F05AFAE07920B1E179384A78
:1023E0002068FEF715FB207A20B1217A344A206854
:1023F000FEF70EFB607A20B1617A314A2068FEF761
:1024000007FBA07A20B1A17A2D4A2068FEF700FBD5
:1024100010BD2DE9F04104460D4600262846E91777
:1024200005EB917189103C318EB2E07940B13046B4
:1024300005F0ACFB0746E1793A462068FEF7E8FA7A
:10244000207A40B1304605F0A1FB0746217A3A4692
:102450002068FEF7DDFA607A40B1304605F096FB61
:102460000746617A3A462068FEF7D2FAA07A40B170
:10247000304605F08BFB0746A17A3A462068FEF706
:10248000C7FABDE8F0812DE9F04104460E46154635
:102490000027A07918B1C5F1640087B200E02F468B
:1024A000384605F073FB8046424631462068FEF709
:1024B000AFFABDE8F0817047014600207047000088
:1024C00000008C420160C280704770477FB50446AF
:1024D0000D462DB10123002219462068FFF73CF973
:1024E0000D20039000200122CDE90020029003ABD3
:1024F0002422D0212068FFF77BF9002003900122DD
:10250000CDE90020029003AB6A22D0212068FFF7BA
:102510006FF90220039000200122CDE900200290F3
:1025200003AB3722D0212068FFF762F92068FFF75C
:10253000B7F810B9002004B070BD45B100230122E6
:1025400011462068FFF708F908B90020F3E70120D9
:10255000F1E77FB504460D462DB10123002219464F
:102560002068FFF7F9F8002003900122CDE9002050
:10257000029003AB6B22D0212068FFF739F90220CB
:10258000039000200122CDE90020029003AB372206
:10259000D0212068FFF72CF90720039000200122AA
:1025A000CDE90020029003AB1922D0212068FFF76B
:1025B0001FF90720039000200122CDE9002002909E
:1025C00003AB6A22D0212068FFF712F9062003909E
:1025D00000200122CDE90020029003AB1A22D02175
:1025E0002068FFF705F91820039000200122CDE9AB
:1025F0000020029003AB1B22D0212068FFF7F8F8DF
:102600000920039000200122CDE90020029003ABB5
:102610001C22D0212068FFF7EBF82068FFF740F874
:1026200000212046FFF752FF4DB100230122114641
:102630002068FFF791F810B9002004B070BD0120A8
:10264000FBE7C18070470146C88870473EB5054624
:102650000C46684604F021FC207A000200B2617A40
:1026600008430090A07A000200B2E17A084301908A
:10267000207B000200B2617B084302909DE80700C6
:1026800085E807003EBD3EB505460C46684604F0A9
:1026900004FC207C000200B2617C08430090A07C16
:1026A000000200B2E17C08430190207D000200B2EC
:1026B000617D084302909DE8070085E807003EBD64
:1026C0000146887B000200B2CA7B104370471EB5EA
:1026D00002466846002303604360836000BF9DE8B4
:1026E000190082E819001EBD10B504462068FEF7E7
:1026F000BDFF10B12079682801D0002010BD207ADC
:1027000038B9607A28B9A07A18B9207B08B90220B4
:10271000F4E70120F2E72DE9F04F87B0044689463F
:1027200092469B4601F0C2F8454A03C2E08804F095
:102730002CFE07463A460B460020424904F0A0FC16
:1027400005460E4640483E490CC803C904F0A0FFA8
:102750002A463346CDE9040104F02AFE03D20220C2
:1027600007B0BDE8F08F3648D0E90010364AC2E91C
:102770000010B9F1000F05D001230022194620688E
:10278000FEF7EAFF0E2104F108000022CDE9002047
:10279000029113463B22D0212068FFF729F801213E
:1027A000201D0022CDE90020029113467522D02180
:1027B0002068FFF71DF82068FEF772FF40B9206817
:1027C000FEF799FD49462046FFF7C3FE0020C7E704
:1027D0002046FFF789FF022806D149462046FFF729
:1027E000B8FE08B90020BBE7B9F1000F08D00023FC
:1027F000012211462068FEF7AFFF08B90020AFE7BD
:10280000BAF1000F0BD0214601A8FFF71FFF01A866
:1028100007C804AB07C304A9504604F043FBBBF14F
:10282000000F0BD0214601A8FFF72DFF01A807C814
:1028300004AB07C304A9584604F034FB01208FE71A
:10284000700000200000F03F68000020002107E039
:102850004FF4FA5100BF0A1EA1F1010399B2FAD157
:10286000021EA0F1010398B2F2D1704710B50246E2
:10287000002106E00A2100BF0B1EA1F10104A1B254
:10288000FAD1031EA0F10100F4D110BD30B5054608
:1028900003E04FF47A70FFF7D9FF201EA4F1010482
:1028A000F7D130BD46E001F001F8354A10605160C3
:1028B00034480268436832490868496804F0E8FE11
:1028C000314A10605160314A314B2F4908684968DC
:1028D00004F0A8FE0DD82A4801684068294A116012
:1028E00050602C4800F037FD2B480078401C2A49E6
:1028F000087029480078022804D01E2806D0322803
:102900000CD107E0234800F053FE12E0214800F00C
:10291000C8FE0EE01F4800F0D7FE0AE01E4800780F
:10292000C72805DB00201C4908701A4800F0E9FEA2
:1029300000BF00BFB7E703F0B2FE164800F0A6FDE7
:10294000144800F004FEFFF7ADFF10B588B000207A
:102950000390049005900690012007210322002394
:10296000CDE9002102904FF4165201460B48FDF7C5
:102970002FFC04460A4A0B4903F012FF08B010BDB1
:10298000780000208000002088000020FCA9F1D2FF
:102990004D62603F3004002090000020D8000020ED
:1029A000000000089B0100082DE9F0438BB00446AD
:1029B0004FF00009282101A803F03BFF4CE02079EB
:1029C0000B2843D2DFE800F0423C36302A241E18A0
:1029D000120C06000A982168498A08440A9000BF30
:1029E00009982168098A0844099000BF089821685D
:1029F000C9890844089000BF07982168898908445C
:102A0000079000BF0698216849890844069000BFD6
:102A10000598216809890844059000BF0498216839
:102A2000C9880844049000BF039821688988084435
:102A3000039000BF0298216849880844029000BFB3
:102A40000198216809880844019000E000BF00BF98
:102A500009F1010000F0FF09B9F1320FAFDB207975
:102A60000B2843D2DFE800F0423C36302A241E18FF
:102A7000120C060032210A98B0FBF1F00A9000BF58
:102A800032210998B0FBF1F0099000BF322108987B
:102A9000B0FBF1F0089000BF32210798B0FBF1F0D5
:102AA000079000BF32210698B0FBF1F0069000BFFE
:102AB00032210598B0FBF1F0059000BF3221049857
:102AC000B0FBF1F0049000BF32210398B0FBF1F0AD
:102AD000039000BF32210298B0FBF1F0029000BFDA
:102AE00032210198B0FBF1F0019000E000BF00BF7F
:102AF00020790B287ED2DFE800F08A7B6E61544794
:102B00003A2D201306000A9804F03FFC07464A4A73
:102B10004A4B04F089FC054604F0CCF9E06200BFA2
:102B2000099804F032FC0746434A444B04F07CFC0D
:102B3000054604F0BFF9A06200BF089804F025FC28
:102B400007463D4A3D4B04F06FFC054604F0B2F9E0
:102B5000606200BF079804F018FC0746364A374BFE
:102B600004F062FC054604F0A5F9206200BF069857
:102B700004F00BFC0746304A304B04F055FC054688
:102B800004F098F9E06100BF059804F0FEFB0746E9
:102B9000294A2A4B04F048FC054604F08BF9A06151
:102BA00000BF049804F0F1FB0746234A234B04F0CE
:102BB0003BFC054604F07EF9606100BF039804F019
:102BC000E4FB07461C4A1D4B04F02EFC054604F0AE
:102BD00071F9206100BF029804F0D7FB0746164A3E
:102BE000164B04F021FC054604F064F9E06000BFD8
:102BF000019800E00BE004F0C8FB05460E4A0F4BBD
:102C000004F012FC074604F055F9A06000E000BF94
:102C100000BF0BB0BDE8F08310B501600271002366
:102C200083600024C460046144618461C4610462FF
:102C300044628462C46210BDB4D934E70C684A3F70
:102C400030B5039C0025056041608260C36004616B
:102C500030BD70472DE9F84F04460D462946E0681F
:102C600004F0DCFF00902946A06804F0D7FF8246FC
:102C7000294604F0D3FF80462946606804F0CEFF61
:102C80008346294604F0CAFF8246294604F0C6FF5F
:102C90008146414604F012FE0746009904F00EFEFC
:102CA0000646216904F00AFE20602068BDE8F88F1E
:102CB0002DE9F84F044615462946E06804F0AEFFBA
:102CC00000902946A06804F0A9FF8246294604F036
:102CD000A5FF80462946606804F0A0FF8346294688
:102CE00004F09CFF8246294604F098FF8146414645
:102CF00004F0E4FD0746009904F0E0FD0646216972
:102D000004F0DCFD20602068BDE8F88F01464868CB
:102D100070470146886870470146C8687047014699
:102D20000869704710B5029C41608260C36004610D
:102D300010BD00007CB5044604F67820FFF734FE91
:102D40004FF428600059C4F8F409D4F8840AC4F890
:102D5000F809FE49D4F8880A04F060FFC4F8FC09B9
:102D6000D4F88C0AC4F8000AD4F8900AC4F8040A0B
:102D7000012104F6BC20D4F8F429FFF799FFC4F828
:102D8000A80A022104F6BC20D4F8F829FFF790FF26
:102D9000C4F8AC0A032104F6BC20D4F8002AFFF7DB
:102DA00087FFC4F8B00A042104F6BC20D4F8042A32
:102DB000FFF77EFF04F6A824E060D4E9000104F0E8
:102DC0007DFD0646A16804F079FD0546E16804F042
:102DD00075FD2061E068009094E80E00A4F6A82438
:102DE00004F5316001F09AF804F5316001F07DF8E6
:102DF00000788DF8040004F5316001F076F8407831
:102E00008DF805007CBD2DE9F04F93B004460020FD
:102E100001210490CDE90501022103220790CDE9AB
:102E20000002CB4B0246CDE9021001212046FEF7FD
:102E300074FB044600200390049005900690012046
:102E4000072103220023CDE9002102904FF4E13253
:102E5000014604F53A70FDF7BBF9A0F53A7400207D
:102E6000039004900590069001200721032200237F
:102E7000CDE9002102904FF4E132032104F5C8604E
:102E8000FDF7A6F9A0F5C864FF2003900490059013
:102E90000921052206900423CDE900210290032296
:102EA000022104F6082003F085FEA0F6082405227E
:102EB00004F6082104F67820FFF7AEFEA0F6782489
:102EC000A448A54BA54AA649009004F6BC20FFF7EC
:102ED000B7FEA0F6BC2404F52D654FF080474FF0F7
:102EE00001084FF00009CA464FF4C876CB46CDF82A
:102EF00020800020A880E88031462846FDF71BFF8F
:102F0000CDE9026BCDE9009A424639462846089B36
:102F1000FDF707FE00BFA5F52D6400200346012242
:102F200004F52D61009004F6F820FFF718FAA0F6DA
:102F3000F82400200346022204F52D61009004F6D7
:102F40000430FFF70CFAA0F6043404F6043204F659
:102F5000F82104F5316000F0BDFFA0F531640320D5
:102F600010230B227F49009004F53260FEF777F8BA
:102F7000A0F532640320282308227A49009004F641
:102F80002C30FEF76CF8A0F62C340120002103460B
:102F900004F62C32CDE9001004F5326104F6383025
:102FA000FEF768FFA0F638340320102306226D498F
:102FB000009004F65430FEF752F8A0F65434032083
:102FC000282307226749009004F53660FEF747F88A
:102FD000A0F5366401200021034604F53662CDE9F0
:102FE000001004F6543104F66C30FEF743FFA0F6EF
:102FF0006C346422214604F53960FFF763FAA0F5CA
:103000003964282258A109A803F0E1FB9DF82400A7
:1030100084F8CA099DF8251040F6CB1001559DF89B
:10302000260084F8CC099DF8271040F6CD100155F4
:103030009DF82810401C01559DF82910401C015591
:103040009DF82A0084F8D0099DF82B0084F8D10956
:103050009DF82C1040F6D21001559DF82D10401C03
:1030600001559DF82E10401C01559DF82F0084F845
:10307000D5099DF8301040F6D61001559DF8311055
:10308000401C01559DF83210401C01559DF833003D
:1030900084F8D9099DF8341040F6DA1001559DF8EE
:1030A000350084F8DB099DF8361040F6DC10015538
:1030B0009DF8370084F8DD099DF8381040F6DE10E1
:1030C00001559DF83910401C01559DF83A10401CDF
:1030D00001559DF83B0084F8E1099DF83C0084F817
:1030E000E2099DF83D1040F6E31001559DF83E00C1
:1030F00084F8E4099DF83F1040F6E51001559DF86D
:10310000400084F8E6099DF8410084F8E7099DF83D
:10311000420084F8E8099DF8430084F8E9099DF825
:10312000441040F6EA1001559DF84510401C015529
:103130009DF84610401C01559DF84710401C015554
:103140009DF84810401C015522E000000000C842D4
:10315000801A06005C8F0944AEA704C471BD3043D9
:10316000B81EA1C100080140AAAA0000000000008A
:10317000000000000000000000000000000000004F
:10318000000000000000000000000000000000003F
:103190009DF8490084F8EF099DF84A104FF41F602C
:1031A00001559DF84B0084F8F109204613B0BDE8A5
:1031B000F08F0A7880F8CA294B7840F6CB12135466
:1031C00070470A7880F8CC294B7840F6CD1213541A
:1031D0008B78521C1354CB78521C1354704780F8D0
:1031E000D01970470A7880F8D1294B7840F6D2126E
:1031F00013548B78521C1354CB78521C13547047C1
:103200000A7880F8D5294B7840F6D61213548B787B
:10321000521C1354CB78521C135470470A7880F810
:10322000D9294B7840F6DA12135470470A7880F89F
:10323000DB294B7840F6DC12135470470A7880F88B
:10324000DD294B7840F6DE1213548B78521C135450
:10325000CB78521C1354704780F8E11970470A78F4
:1032600080F8E2294B7840F6E312135470470A784D
:1032700080F8E4294B7840F6E5121354704780F843
:10328000E619704780F8E719704780F8E819704729
:103290000A7880F8E9294B7840F6EA1213548B78C3
:1032A000521C1354CB78521C13540B79521C1354D8
:1032B0004B79521C135470470A7880F8EF294B78E9
:1032C0004FF41F621354704780F8F119704701469C
:1032D00001F6CA107047014601F6CC10704701464E
:1032E00001F51D607047014601F6D1107047014697
:1032F00001F6D5107047014601F6D9107047014616
:1033000001F6DB107047014601F6DD1070470146FB
:1033100001F6E1107047014601F6E21070470146E0
:1033200001F6E4107047014601F6E61070470146C9
:1033300001F6E7107047014601F6E81070470146B4
:1033400001F6E9107047014601F6EF10704701469B
:1033500001F6F11070477CB5044604F67820FFF7BB
:1033600023FB4FF428600059C4F8F409D4F8840A08
:10337000C4F8F809FE49D4F8880A04F04FFCC4F8F0
:10338000FC09D4F88C0AC4F8000AD4F8900A04F6B0
:10339000F4142061206804F065FAF64A03C26068FC
:1033A00004F060FAF34AC2E90201E06804F05AFA54
:1033B000F04AC2E904012069A4F6F41404F052FAB8
:1033C000EC4AC2E906011046D0E90021104603F09C
:1033D00071FD05462A46012104F6BC20FFF768FC72
:1033E000C4F8A80AE348D0E90221104603F062FDC0
:1033F00005462A46022104F6BC20FFF759FCC4F812
:10340000AC0ADC49D1E90421104603F053FD05461E
:103410002A46032104F6BC20FFF74AFCC4F8B00A90
:10342000D448D0E90621104603F044FD05462A465B
:10343000042104F6BC20FFF73BFC04F6A824E0605E
:10344000D4E9000104F03AFA0646A16804F036FA1D
:103450000546E16804F032FA2061E068009094E8E3
:103460000E00A4F6A82404F5316000F057FD04F521
:10347000316000F03AFD00788DF8040004F5316009
:1034800000F033FD40788DF805007CBD2DE9F84350
:1034900004462046FFF75FFF00BFB749D4F8B80ADB
:1034A00004F088FBF9D304F5316000F01EFD0078CC
:1034B0008DF8000004F5316000F017FD40788DF8BC
:1034C00001004FF000093CE000F0F0F904F53B6426
:1034D000C4E90001D4E902532A46D4E90071384610
:1034E00004F0D6F8C4E90401D4E90451A4F53B641E
:1034F000A24AA34B284604F095F822D204F53B6477
:10350000D4E90001C4E90201207EA4F53B649DF8E2
:103510000010401A052806DC94F8C90B9DF801102C
:10352000401A052801DD4FF000099DF8000084F8DD
:10353000C80B9DF8010084F8C90B09F1010000F0E7
:10354000FF09B9F14B0FBFDB0120BDE8F88310B5CF
:1035500004468C4A012104F52D60FDF759FA894A89
:10356000022104F52D60FDF753FA0221864800F090
:10357000FCF9864A012104F52D60FDF749FA834ADA
:10358000022104F52D60FDF743FA03217E4800F087
:103590000FFA10BD10B50446002104F53960FEF79E
:1035A000D8FF20B9002104F53960FEF7D2FF10BD25
:1035B00010B504467649D4F8B80A04F0FBFB06D2ED
:1035C000012084F8CA0B0020C4F8CC0B02E00020D4
:1035D00084F8CA0B94F8CA0B012857D104F531605E
:1035E00000F083FC40780A2845DD04F5316000F0E6
:1035F0007CFC00782B2804DA66480078401C65497A
:1036000008706448007804280CDD0E2104F60430AC
:10361000FEF7FFFE042104F6F820FEF7FAFE002074
:103620005C49087004F5316000F05FFC00783928CF
:1036300004DD59480078401C574908705648007806
:1036400004280DDD042104F60430FEF7E2FE0E210D
:1036500004F6F820FEF7DDFE00204F4908701FE059
:10366000122104F6F820FEF7D4FE122104F60430ED
:10367000FEF7CFFE14E0002104F6F820FEF7C9FEA5
:10368000002104F60430FEF7C4FE09E0002104F630
:10369000F820FEF7BEFE002104F60430FEF7B9FE66
:1036A00010BD70B504460025002604F63830FEF73C
:1036B000B1FC054604F66C30FEF7ACFC0646C4F8D7
:1036C000885BC4F88C6B70BD10B586B004460023CF
:1036D0001A46194604F53960FFF71DF820B92FA1E5
:1036E00004F53A70FDF7F2F804F539616846FEF723
:1036F000ADFF9DE8070003AB07C3C4F8A82B06B0D5
:1037000010BD2DE9F04F8FB082460AF5C860FCF776
:1037100099FF002813DD0AF5C860FCF793FF044603
:1037200022460AF698110AF5C860FCF777FF224690
:103730000AF698110AF5C860FCF7EBFE00BF1AA064
:1037400000680E900AF5316000F0CFFB00788DF82C
:1037500039000AF5316000F0C8FB40788DF83A0076
:103760000AF5316000F0C1FB0078401C0D901DE0AF
:103770000000C8420010002000000C427B14AE473D
:10378000E17A943F00002041980000200000704240
:103790000000A04091000020920000206572726F2E
:1037A000720A0A0A00000000AA0000000AF531604F
:1037B00000F09BFB00780A90DAF8B40A04F052F8A3
:1037C00004460D46DAF8B00A04F04CF806460F46F7
:1037D000DAF8AC0A04F046F880468946DAF8A80A16
:1037E00004F040F802460B46CDE900010AF53A70B4
:1037F000FDF706F81DA10290FDF768F842464B461A
:103800000390FCF7FDFF19A10490FDF75FF8324625
:103810003B460590FCF7F4FF14A10690FDF756F81F
:1038200022462B460790FCF7EBFF10A10890FDF70E
:103830004DF809900A99FCF7B4FF0CA10B90FDF725
:1038400045F80C900D99FCF7ACFF834608A1FDF7F5
:103850003DF80FB0BDE8F08F10B50648FFF7D3FA7A
:103860000446054A054902F09BFF10BD20200000D8
:103870000D0A00003004002000000008096C000858
:103880005D480068401C5C49086070474FF0E021CB
:10389000096921F004014FF0E0221161574951619B
:1038A0001146096941F00301116170472DE9F047A4
:1038B0004FF0E021886903F068FD06460022504B76
:1038C00003F0DEFB04460D464B48006803F05DFD47
:1038D000064600224B4B03F01FFB804622462B4638
:1038E00003F0D6FE484A03C2484847490CC803C9FA
:1038F00003F0CEFE0446464A464B03F093FE07D241
:103900000022404B404903C903F0C2FE3E4A03C2B5
:103910003D48D0E900103D4AC2E900103A4903C9C8
:10392000BDE8F0872DE9FC5F83460C46FFF7BEFF3C
:1039300005460E4600BF204603F027FD074600223D
:10394000354B03F09DFB81468A46FFF7AFFF0746E4
:103950002A46334603F09CFE4A465346CDE9000111
:1039600003F026FDE7D3BDE8FC9F2DE9FC5F83460D
:103970000C46FFF79BFF05460E4600BF204603F0AE
:1039800004FD07460022254B03F07AFB81468A4658
:10399000FFF78CFF07462A46334603F079FE4A4676
:1039A0005346CDE9000103F003FDE7D3BDE8FC9FDA
:1039B0002DE9FC5F83468A46FFF778FF04460D46F3
:1039C00000BF504603F0E1FC06460F46FFF76EFFCE
:1039D00022462B46CDE9000103F05AFE80463246CE
:1039E0003B4603F0E5FCECD3BDE8FC9F00B50C487A
:1039F000FFF74CFF00BD00009C00002040548900F0
:103A0000882A61410000F03FA0000020A8000020AB
:103A1000AE47E17A14AEEF3F80842E4100408F40E4
:103A20009800002010B504462078232811DB207868
:103A300041280EDC607801280BDB6078642808DC04
:103A400032216068FEF7E5FC3221A068FEF7E1FC58
:103A50003FE0207823280EDA607801280BDB6078BD
:103A6000642808DC14216068FEF7D3FC3221A068CA
:103A7000FEF7CFFC2DE02078642811DC2078412867
:103A80000EDD607801280BDB6078642808DC3221C9
:103A90006068FEF7BEFC1421A068FEF7BAFC18E0CF
:103AA000207864280BDC6078012808DA002160683F
:103AB000FEF7AFFC0021A068FEF7ABFC09E0002098
:103AC000A07300216068FEF7A4FC0021A068FEF747
:103AD000A0FC10BD2DE9F04104460F4615461E46D8
:103AE000DDF8188039466068FEF7E5FC2946A068D5
:103AF000FEF7E1FC31466068FEF78BFC4146A068AA
:103B0000FEF787FCBDE8F0812DE9F84F8046AD2730
:103B10004FF000094FF0000A322698F8005098F84C
:103B20000140322D0DD1322C0BD10021D8F80400E8
:103B3000FEF76FFC0021D8F80800FEF76AFCBDE82C
:103B4000F88F322D14DDA4F1320064214843A5F131
:103B5000320190FBF1F01FFA80F9C4F132006421C8
:103B60004843A5F1320190FBF1F01FFA80FA15E00D
:103B7000322D13DAA4F1320064214843C5F1320139
:103B800090FBF1F01FFA80F9C4F132006421484340
:103B9000C5F1320190FBF1F01FFA80FAA5F1320075
:103BA0004043A4F132010A4601FB020106FB06F084
:103BB00081420ADD0021D8F80400FEF72AFC00212A
:103BC000D8F80800FEF725FCB9E7322D01D1322CD8
:103BD00003DC322C12DDB94510DBA4F132004FF6C4
:103BE000FF7101EA40000090A4F1320001EA4003B5
:103BF000012211464046FFF76DFFE1E0322C2FDB3A
:103C0000322D2DDDB9452BDAA5F132014943A4F15E
:103C10003202134602FB031003F0A0FF009003F0F2
:103C200027F8834603F07AFF86B2A7EB09006421E8
:103C3000484390FBF7F0C0F16400710048436421F1
:103C400090FBF1F01FFA80FB4FF6FF7000EA46038D
:103C5000012211464046CDF800B0FFF73BFFAFE030
:103C6000322C2FDB322D2DDAB9452BDAC5F132019A
:103C70004943A4F13202134602FB031003F06EFF26
:103C8000009002F0F5FF834603F048FF86B2A7EBF1
:103C900009006421484390FBF7F0C0F16400710013
:103CA0004843642190FBF1F01FFA80FB4FF6FF7050
:103CB00000EA46005B460122114600904046FFF7AD
:103CC00009FF7DE0322D01D1322C03DB322C12DAD8
:103CD000BA4510DBC4F132004FF6FF7101EA400033
:103CE0000090C4F1320001EA400300221146404630
:103CF000FFF7F0FE64E0322C30DA322D2EDDBA45CB
:103D00002CDAA5F132014943C4F13202C4F1320385
:103D100002FB031003F022FF009002F0A9FF83468C
:103D200003F0FCFE86B2A7EB0A006421484390FB37
:103D3000F7F0C0F1640071004843642190FBF1F09A
:103D40001FFA80FB4FF6FF7000EA4603002211467F
:103D50004046CDF800B0FFF7BDFE31E0322C2FDA3F
:103D6000322D2DDABA452BDAC5F132014943C4F1BF
:103D70003202C4F1320302FB031003F0EFFE0090A5
:103D800002F076FF834603F0C9FE86B2A7EB0A0075
:103D90006421484390FBF7F0C0F164007100484390
:103DA000642190FBF1F01FFA80FB4FF6FF7000EAF0
:103DB00046005B460022114600904046FFF78AFE0F
:103DC00000BFBCE62DE9F04104462178642251434E
:103DD000232291FBF2F101EB8101080100EBD0718C
:103DE000C1F34F062178C1F16401642251432322BB
:103DF00091FBF2F101EB8101080100EBD071C1F3FD
:103E00004F07207823281BDB2078412818DC6078B6
:103E1000012815DB6078642812DC6078401E00EB16
:103E2000401000EB4000642190FBF1F085B2294680
:103E30006068FEF7EEFA2946A068FEF7EAFA47E066
:103E40002078232812DA607801280FDD6078642852
:103E50000CDC642096FBF0F085B229466068FEF722
:103E6000D8FA5021A068FEF7D4FA31E0207864280F
:103E700015DC2078412812DB607801280FDB6078A0
:103E800064280CDC642097FBF0F085B25021606858
:103E9000FEF7BFFA2946A068FEF7BBFA18E02078C3
:103EA00064280BDC6078012808DA00216068FEF7DE
:103EB000B0FA0021A068FEF7ACFA09E00020A07378
:103EC00000216068FEF7A5FA0021A068FEF7A1FABC
:103ED000BDE8F08141608260002383738381704775
:103EE0000A7802704A7842707047704710B50446ED
:103EF000E07B012804D0022806D003280CD107E07B
:103F00002046FFF78FFD07E02046FFF7FDFD03E0A9
:103F10002046FFF757FF00BF00BF10BD2DE9F84F47
:103F200004460D4616461F463146284603F0C6FC99
:103F30003946009003F0C2FC83460A9903F0BEFCA8
:103F4000814639461C4803F069FE834631461A48CB
:103F500003F064FE5946009003F0B0FC82464946E7
:103F600003F01AFD804603F0D9FD20703146284643
:103F700003F0A4FC3946009003F0A0FC83460A99A4
:103F800003F09CFC814631460B4803F047FE834614
:103F90002946094803F042FE5946009003F08EFC82
:103FA0008246494603F0F8FC804603F0B7FD607096
:103FB000BDE8F88F704700000000C8423149014356
:103FC000314A1160704770B5002100230F22C47878
:103FD00004B32D4C246804F4E064C4F5E064210AC1
:103FE000C1F10403CA40447804FA03F18478144010
:103FF00021430901254C0678A155047804F01F05DA
:104000000124AC4005786D11AD0005F1E025C5F83F
:10401000004109E0047804F01F050124AC401C4D68
:104020000678761145F8264070BD1A4A0A400243C8
:10403000154B1B1F1A60704739B1134A121D1268C5
:104040000243114B1B1D1A6006E00F4A121D126835
:1040500082430D4B1B1D1A607047042808D14FF096
:10406000E021096941F004014FF0E022116107E00D
:104070004FF0E021096921F004014FF0E0221161C5
:10408000704700000000FA050CED00E000E400E0DD
:1040900080E100E080FFFF1F10B50446FA4884422B
:1040A00008D10121401501F00FF90021601501F040
:1040B0000BF917E0F548844208D10121001501F001
:1040C00003F90021201501F0FFF80BE0F0488442CD
:1040D00008D10121C80301F0F7F800214FF4004096
:1040E00001F0F2F810BD30B5024600200023506800
:1040F000E84C20400D790C6844EA052420435060C8
:104100009068E54C2040D1E902542C434D7944EAB3
:10411000450420439060D06A20F470000C7C641E3B
:10412000E4B2234340EA0350D06230BD0021016075
:10413000017141718160C16001210174704721B139
:10414000826842F00102826003E0826822F001028C
:104150008260704721B1826842F48072826003E01D
:10416000826822F480728260704710B50023CBB25F
:104170001AB144681C43446002E044689C434460B4
:1041800010BD816841F00801816070470146002040
:104190008A6802F008020AB1012000E0002070479E
:1041A000816841F0040181607047014600208A68FF
:1041B00002F004020AB1012000E00020704721B1A2
:1041C000826842F4A002826003E0826822F4A002C6
:1041D00082607047014600208A6802F480020AB1BA
:1041E000012000E00020704710B50A46002100239E
:1041F000416821F46041531E41EA4331416010BDE2
:1042000021B1426842F40062426003E0426822F455
:10421000006242607047F0B504460D460020002160
:10422000092D11DDE068A5F10A0606EB4607072611
:1042300006FA07F18843A5F10A0606EB460603FADB
:1042400006F10843E0600CE0206905EB450707260E
:1042500006FA07F1884305EB450603FA06F1084321
:104260002061072A0FDA606B561E06EB86071F26B1
:1042700006FA07F18843561E06EB860605FA06F194
:104280000843606322E00D2A0FDA206BD61F06EB8D
:1042900086071F2606FA07F18843D61F06EB860617
:1042A00005FA06F10843206310E0E06AA2F10D066A
:1042B00006EB86071F2606FA07F18843A2F10D06D2
:1042C00006EB860605FA06F10843E062F0BD21B16F
:1042D000826842F48012826003E0826822F48012D5
:1042E000826070470146C86C80B2704766484C30A7
:1042F0000068704721B1426842F48062426003E086
:10430000426822F480624260704721B1426842F400
:104310008052426003E0426822F48052426070475B
:104320000A460021816821F4E04111438160704711
:1043300021B1826842F40042826003E0826822F484
:1043400000428260704721B1826842F402128260AA
:1043500003E0826822F40212826070470146002066
:104360008A6802F400120AB1012000E000207047C0
:10437000F0B504461546002000220026092911DD6B
:10438000E068A1F10A0707EB470C072707FA0CF2D0
:104390009043A1F10A0707EB470703FA07F210431E
:1043A000E0600CE0206901EB410C072707FA0CF2F2
:1043B000904301EB410703FA07F210432061A06B21
:1043C000C0F30156EF1C06F1010CA7EB0C0707EB3D
:1043D000870C1F2707FA0CF29043EF1C06F1010C23
:1043E000A7EB0C0707EB870701FA07F21043A0635E
:1043F000F0BD10B50A4600210023816B21F4401165
:10440000531E41EA0351816310BD08B50023009398
:104410000090009B0B440093009B1A6008BD08B5F8
:10442000024600200090009201F12800009B1844F1
:1044300000900098006880B208BD0A4600214168DB
:10444000164B1940114341607047416282627047C8
:104450000A460021416821F01F0111434160704765
:1044600040B109490831096841F40001064A08329F
:10447000116007E004490831096821F40001024A8B
:1044800008321160704700000024014000280140FC
:10449000003C0140FFFEF0FFFDF7F1FFFFFD3FFF95
:1044A0000246002013680B400BB1012000E0002001
:1044B0007047CA430260704770B50246002000236F
:1044C00000240B125568CEB205EA060415681D409B
:1044D00015B10CB1012000E0002070BD00220A12CD
:1044E000D34303607047000001684FF6FE7211402D
:1044F00001600021016041608160C1608D49884296
:1045000008D18C490839496841F00F01894A083AB5
:1045100051608AE087491431884208D185490839B9
:10452000496841F0F001834A083A51607DE08149D1
:104530002831884208D17F490839496841F47061BF
:104540007C4A083A516070E07A493C31884208D18F
:1045500078490839496841F47041764A083A51600F
:1045600063E074495031884208D17249083949687A
:1045700041F470216F4A083A516056E06D49643148
:10458000884208D16B490839496841F47001694A89
:10459000083A516049E067497831884208D1654955
:1045A0000839496841F07061624A083A51603CE05C
:1045B0006149884206D1011F096841F00F01021FBD
:1045C000116032E05C491431884208D15A49091F10
:1045D000096841F0F001584A121F116025E0564960
:1045E0002831884208D15449091F096841F4706193
:1045F000514A121F116018E04F493C31884208D1DE
:104600004D49091F096841F470414B4A121F11605E
:104610000BE049495031884207D14749091F0968D1
:1046200041F47021444A121F1160704710B50022F6
:10463000026847F6F0739A430C6A8B6823430C694F
:1046400023434C6923438C692343CC6923434C6A3D
:1046500023438C6A23431A430260CB6843600B6890
:1046600083604B68C36010BD0021016041608160C0
:10467000C160016141618161C16101624162816228
:10468000704721B1026842F00102026004E0026852
:104690004FF6FE731A40026070471AB103680B436D
:1046A000036002E003688B4303607047416070471A
:1046B0000146486880B2704701460020002201F0A0
:1046C00080531BB11C4B083B1A6802E0194B083B96
:1046D0001A6802EA01030BB1012000E000207047D4
:1046E00000F0805119B11449091F086002E0114916
:1046F00008394860704701460020002201F08053CD
:104700001BB10D4B083B1A6802E00A4B083B1A68C4
:1047100002EA01030BB1012000E00020704700F025
:10472000805119B10449091F086002E001490839A4
:1047300048607047080002400804024000204449D5
:104740000860091D0860091D0860091D08604148CE
:104750003F4914310860704700213D498279002AA1
:104760003AD00A46126803689A430B461A600A1D3B
:10477000126803689A430B1D1A60027911440A6893
:1047800003681A430A60324A0832126803689A437F
:104790002F4B08331A601A1D126803689A432C4B7A
:1047A0000C331A604279102A0ED11A1F126803685E
:1047B0001A43274B08331A601A1D126803681A43FC
:1047C000234B0C331A600DE02149427911440A68E9
:1047D00003681A430A6005E0027911440A68036815
:1047E0009A430A6070470021016001710C214171F8
:1047F0000021817170471649103109680143144A3C
:1048000010321160704701460020114A14321268BC
:104810000A400AB1012000E0002070470C49143121
:1048200008607047014600200022094B1B6803EA1C
:104830000102074B14331B680B4013B10AB101206E
:1048400000E0002070470249143108607047000002
:1048500000040140FFFF0F0010B50446CC4884421D
:1048600008D10121042000F02FFD0021042000F0D8
:104870002BFD46E0C748844208D10121082000F002
:1048800023FD0021082000F01FFD3AE0C2488442C9
:1048900008D10121102000F017FD0021102000F0A8
:1048A00013FD2EE0BD48844208D10121202000F0F4
:1048B0000BFD0021202000F007FD22E0B8488442D3
:1048C00008D10121402000F0FFFC0021402000F031
:1048D000FBFC16E0B348844208D10121802000F09F
:1048E000F3FC0021802000F0EFFC0AE0AE48844297
:1048F00007D10121801500F0E7FC0021A01500F090
:10490000E3FC10BD10B50121084600F0DDFC0021DC
:10491000012000F0D9FC10BD2DE9F0410246002530
:104920000026002000230024002791F803C00CF08B
:104930000F0591F803C00CF0100CBCF1000F03D070
:1049400091F802C04CEA050591F800C0BCF1000FD7
:1049500031D0146800202BE04FF0010C0CFA00F36A
:10496000B1F800C00CEA03069E4220D183004FF04C
:104970000F0C0CFA03F7BC4305FA03FC4CEA0404E1
:1049800091F803C0BCF1280F06D14FF0010C0CFACE
:1049900000FCC2F814C00AE091F803C0BCF1480F53
:1049A00005D14FF0010C0CFA00FCC2F810C0401CFD
:1049B0000828D1D31460B1F800C0BCF1FF0F34DD7A
:1049C000546800202EE000F1080C4FF0010808FAAE
:1049D0000CF3B1F800C00CEA03069E4221D183001B
:1049E0004FF00F0C0CFA03F7BC4305FA03FC4CEA3A
:1049F000040491F803C0BCF1280F05D100F1080CA4
:104A000008FA0CF8C2F8148091F803C0BCF1480F02
:104A100007D100F1080C4FF0010808FA0CF8C2F8B1
:104A20001080401C0828CED35460BDE8F0814FF6BA
:104A3000FF710180022181700421C170704702461C
:104A4000002093680B400BB1012000E0002070476C
:104A50000146886880B2704702460020D3680B4048
:104A60000BB1012000E0002070470146C86880B209
:104A7000704701617047416170470AB1016100E010
:104A800041617047C16070474FF480320A438261D0
:104A90008161826182698269704702460020434BCE
:104AA00018684FF68073184040EA021008433F4BE5
:104AB000186070473E49C8617047F0B50A46002348
:104AC00000240021002500F00046B6F1004F02D17D
:104AD000364EF16901E0354E7168C0F3034583B28B
:104AE00000F44016B6F5401F08D121F070612F4E3A
:104AF000766826F070662D4F7E6012E000F4801616
:104B0000B6F5801F06D1032606FA05F4A14341F04D
:104B1000706106E0460D360103FA06F6B14341F036
:104B2000706122B1460D360103FA06F6314300F0FA
:104B30000046B6F1004F02D11C4EF16101E01B4E60
:104B40007160F0BD30B500228B071C0F0F2303FAF4
:104B500004F2164B08338C1053F824309343134C53
:104B600008348D1044F8253023468C1053F8243037
:104B70008C07240F00FA04F423430C4C08348D10E6
:104B800044F8253030BD0A49DC3108607047000028
:104B900000080140000C01400010014000140140D9
:104BA00000180140001C01400020014000000140AD
:104BB0000000204210B50446F748844209D1012183
:104BC000480500F08EFB00214FF4001000F089FB37
:104BD00008E00121880500F084FB00214FF48000EB
:104BE00000F07FFB10BD2DE9F04385B004460D4673
:104BF0000026B1460427DFF8A483A6884FF6C070CC
:104C00000640684600F0D9FADDF80880E448B8FBB1
:104C1000F0F01FFA80F946EA0906A68020884FF6D0
:104C2000FE71084020800026DE49286888420CD8A2
:104C300028684000B8FBF0F087B2042F00DA0427A0
:104C40003E4309F10100208427E0E8884BF6FF711C
:104C5000884206D1286800EB4000B8FBF0F087B22C
:104C600009E0286800EBC00101EB0010B8FBF0F090
:104C700087B247F48047C7F30B0008B947F0010734
:104C800047F4004006434FF4967009FB00F04FF4E0
:104C90007A7190FBF1F0401C2084A683208840F0BC
:104CA0000100208026884FF6F5300640A8886989E3
:104CB000084306432680A88929890843208105B036
:104CC000BDE8F08341F288310160002181804BF61C
:104CD000FF71C1800021018141814FF480418181B8
:104CE000704721B1028842F00102028004E002888C
:104CF0004FF6FE731A400280704721B1828842F459
:104D00000062828004E082884FF2FF731A40828042
:104D1000704721B1828842F48052828004E0828808
:104D20004EF6FF731A408280704721B1028842F428
:104D30008072028004E002884FF6FF631A4002800E
:104D4000704721B1028842F40072028004E00288B8
:104D50004FF6FF531A400280704721B1028842F497
:104D60008062028004E002884FF6FF331A4002801E
:104D700070470A46002181894FF60173194002F0FD
:104D8000FE0319438181704721B1828942F00102FB
:104D9000828104E082894FF6FE731A408281704757
:104DA00021B1028842F04002028004E002884FF6FE
:104DB000BF731A40028070471AB183880B43838007
:104DC00002E083888B4383807047018270470146ED
:104DD000088AC0B2704712B141F0010102E04FF6FB
:104DE000FE7319400182704708B50246002000900A
:104DF00000920098084400900098008808BD21B1F6
:104E0000028842F40042028003E00288C2F30E02EC
:104E100002807047B1F5006F04D1028842F400624D
:104E2000028004E002884FF2FF731A40028070474C
:104E3000B1F5005F04D1028842F40052028004E020
:104E400002884DF6FF731A400280704721B1028834
:104E500042F48052028004E002884EF6FF731A404A
:104E600002807047B1F5006F04D1028842F40062FD
:104E7000028004E002884FF2FF731A4002807047FC
:104E800021B1028842F02002028004E002884FF63D
:104E9000DF731A40028070470146088B001270478A
:104EA00021B1028842F01002028004E002884FF62D
:104EB000EF731A400280704721B9028842F08002E5
:104EC000028004E002884FF67F731A400280704728
:104ED000B1F5804F05D0828B4BF6FF731A40828369
:104EE00003E0828B42F480428283704770B50246B1
:104EF0000024002500230020958A138B1B0445EA1B
:104F0000030626F07F4404EA01068E4201D1012007
:104F100000E0002070BD10B50146002000230022F3
:104F20008B8A0A8B120443EA020424F07F4010BDEE
:104F30000CB50246002000230193009300920B0F52
:104F4000019321F07F41019B1BB1009B143300931F
:104F500003E0090C009B18330093009B1B680B4077
:104F60000BB1012000E000200CBD002221F07F42A7
:104F7000D3438382704730B50246002000239488D3
:104F800001F0E06504EA154321F07F41948A0C406A
:104F900054B14BB1012008E00054004000127A00E7
:104FA00040420F00A0860100002030BD002221F009
:104FB0007F42D34383827047DF48006840F001009E
:104FC000DD49086008464068DC490840DA49486025
:104FD00008460068DA490840D74908600846006872
:104FE00020F4802008600846406820F4FE004860F5
:104FF0004FF41F0088607047CF49096821F4803161
:10500000CD4A11601146096821F480211160B0F584
:10501000803F03D0B0F5802F0ED106E0C649096865
:1050200041F48031C44A116007E0C349096841F482
:10503000A021C14A116000E000BF00BF704710B559
:1050400001460022002300204A11012A02D1BA4C55
:10505000236806E0022A02D1B74C236A01E0B64C6D
:10506000636A01F01F02012494401C400CB101202E
:1050700000E0002010BD38B500200090002400257D
:1050800000BF3120FFF7DBFF05460098401C009071
:105090000098B0F5A06F01D0002DF2D03120FFF7BD
:1050A000CEFF08B1012400E00024204638BD0146AF
:1050B0000020A14A106820F0F80040EAC10010600A
:1050C0007047A04908607047024600209A4B586814
:1050D00020F47C1042EA01031843974B5860704754
:1050E00098490866704701460020934A506820F0AE
:1050F00003000843506070478F48406800F00C0080
:105100007047014600208C4A506820F0F0000843A8
:105110005060704701460020874A506820F4E060E4
:1051200008435060704701460020834A506820F4CD
:10513000605040EAC1005060704729B17E4A527AFF
:1051400002437D4B5A7204E07B4A527A82437A4B87
:105150005A7270477B49D831086070470146002079
:10516000754A506820F44040084350607047002161
:10517000714A20321170704A82F82010012802D042
:1051800004280AD104E001216B4A2032117005E0A5
:105190000521694A2032117000E000BF00BF70474E
:1051A0006949086070476449096A0143624A1162AB
:1051B0007047654944390860704730B500210022C6
:1051C000002400235C4D6D6805F00C0121B1042919
:1051D00005D0082923D105E05C4D056022E05B4D38
:1051E00005601FE0544D6D6805F47012524D6D68F6
:1051F00005F48034022505EB92421CB9544D554309
:1052000005600BE04C4D6D6805F400351DB1504D47
:105210005543056002E04D4D5543056002E04B4D9E
:10522000056000BF00BF444D6D6805F0F00109093D
:10523000484D6B5C0568DD4045603F4D6D6805F489
:10524000E061090A434D6B5C4568DD4085603A4D7D
:105250006D6805F46051C90A3E4D6B5C4568DD40E0
:10526000C560354D6D6805F44041890B3A4D6B5C66
:10527000C568B5FBF3F5056130BD29B12E4A526909
:1052800002432D4B5A6104E02B4A526982432A4B58
:105290005A61704729B1284A92690243264B9A61A4
:1052A00004E0254A92698243234B9A61704729B1F1
:1052B000214AD2690243204BDA6104E01E4AD269D6
:1052C00082431D4BDA61704729B11B4AD268024301
:1052D000194BDA6004E0184AD2688243164BDA6050
:1052E000704729B1144A12690243134B1A6104E052
:1052F000114A12698243104B1A61704712494039B2
:10530000086070470F49C86470470B49C8717047FF
:105310000948406A40F0807007494862704701467A
:105320000020054A92680A400AB1012000E00020EE
:105330007047014988727047001002400000FFF872
:10534000FFFFF6FE000042428004424200127A0053
:1053500000093D00B0000020C000002010B5044648
:10536000FE48844208D10121C014FFF7ADFF00219F
:10537000E014FFF7A9FFC4E0B4F1804F08D1012188
:105380000846FFF7AEFF00210120FFF7AAFFB8E0B3
:10539000F348844208D101210220FFF7A2FF002137
:1053A0000220FFF79EFFACE0EE48844208D10121C5
:1053B0000420FFF796FF00210420FFF792FFA0E0F2
:1053C000E948844208D101210820FFF78AFF002123
:1053D0000820FFF786FF94E0E448844208D10121C9
:1053E0001020FFF77EFF00211020FFF77AFF88E0F2
:1053F000DF48844208D101212020FFF772FF0021FD
:105400002020FFF76EFF7CE0DA48844208D10121BA
:105410004014FFF759FF00216014FFF755FF70E0BB
:10542000D548844209D10121C804FFF74DFF00216E
:105430004FF40020FFF748FF63E0D048844209D1D1
:1054400001210805FFF740FF00214FF48010FFF70E
:105450003BFF56E0CA48844209D101214805FFF7C5
:1054600033FF00214FF40010FFF72EFF49E0C5483D
:10547000844208D101214020FFF733FF0021402062
:10548000FFF72FFF3DE0C048844208D10121802072
:10549000FFF727FF00218020FFF723FF31E0BB4803
:1054A000844208D101218015FFF71BFF0021A015C0
:1054B000FFF717FF25E0B648844209D1012108040F
:1054C000FFF702FF00214FF48030FFF7FDFE18E0E8
:1054D000B048844209D101214804FFF7F5FE0021BC
:1054E0004FF40030FFF7F0FE0BE0AB48844208D1E8
:1054F00001218804FFF7E8FE00214FF48020FFF728
:10550000E3FE10BD00220288944B98420ED0994BC6
:1055100098420BD0B0F1804F08D0914B984205D003
:10552000904B984202D0904B984204D14FF68F7323
:105530001A404B881A438D4B984207D08C4B9842A7
:1055400004D04FF6FF431A40CB881A4302808B8861
:1055500083850B880385814B98420BD0854B9842FD
:1055600008D08B4B984205D08A4B984202D08A4B88
:10557000984201D10B7A038601238382704770B56C
:10558000002400220023058C4FF6FE76354005846A
:10559000028C8388048B4FF68F752C40B51E2C40EF
:1055A0000D882C43751E2A400D892A434D882A43B5
:1055B0006A4DA8420BD06F4DA84208D0744DA84246
:1055C00005D0744DA84202D0734DA84213D14FF6B6
:1055D000F7752A404D892A434FF6FB752A408D887E
:1055E0002A434FF6FF652B404FF6FF552B408D8920
:1055F0002B43CD892B4383800483CD888586028409
:1056000070BD70B5002400220023058C4FF6EF76A4
:1056100035400584028C8388048B48F6FF752C4046
:105620004FF6FF452C400D884FF6FF7606EA05251C
:105630002C434FF6DF752A400D8906EA05152A43EB
:105640004D8806EA05152A43444DA84202D0494D2B
:10565000A8421DD14FF67F752A404D894FF6FF763F
:1056600006EA05152A434FF6BF752A408D8806EADB
:1056700005152A434FF6FF352B404FF2FF752B409F
:105680008D8906EA85052B43CD8906EA85052B43DE
:1056900083800483CD880587028470BD70B50024A3
:1056A00000220023058C4FF6FF6635400584028CEE
:1056B0008388848B4FF68F752C404FF6FC752C40F9
:1056C0000D882C434FF6FF552A400D894FF6FF7683
:1056D00006EA05252A434D8806EA05252A431F4D7B
:1056E000A84202D0234DA8421DD14FF2FF752A4097
:1056F0004D894FF6FF7606EA05252A434FF6FF351A
:105700002A408D8806EA05252A434EF6FF752B4070
:105710004DF6FF752B408D8906EA05152B43CD8983
:1057200006EA05152B4383808483CD888587028410
:1057300070BD70B5002200230024058C4EF6FF7664
:1057400035400584038C8488828B48F6FF752A4097
:105750004FF6FF452A400D8820E00000002C014054
:105760000004004000080040000C00400010004011
:105770000014004000340140004C01400050014042
:105780000054014000180040001C00400020004070
:105790000040014000440140004801404FF6FF76C0
:1057A00006EA05252A434DF6FF752B400D8906EACA
:1057B00005352B434D8806EA05352B43FA4DA842A3
:1057C00002D0FA4DA84208D14BF6FF752C408D89C6
:1057D0004FF6FF7606EA85152C4384808283CD88B8
:1057E000A0F84050038470BD828B4FF2FF331A4003
:1057F0008283828B4FF6FF7303EA01231A4382836D
:105800007047F0B50C461546002200210026078C93
:105810004EF6FF7C07EA0C070784828B018C4FF65B
:10582000FF7707EA043640F6FF473A404FF6FF7726
:1058300007EA05273A434FF6FF7707EA03373A436B
:10584000D94FB8420ED0D94FB8420BD0B0F1804FEB
:1058500008D0D74FB84205D0D64FB84202D0D64F65
:10586000B84206D14DF6FF77394046F480573943A8
:1058700005E047F6FF57394044F4805739438283A7
:105880000184F0BD828B4FF6F3731A408283828BC2
:105890000A4382837047F0B50C461546002200216A
:1058A0000026078C4FF6FF6C07EA0C070784828BF3
:1058B000018C4FF6FF7707EA04264FF60C773A4043
:1058C0004FF6FF7707EA03172F433A43B64FB84224
:1058D0000ED0B64FB8420BD0B0F1804F08D0B44FC5
:1058E000B84205D0B34FB84202D0B34FB84206D148
:1058F0004FF6FF57394046F48077394305E04FF2C1
:10590000FF57394044F48077394382830184F0BDE6
:10591000028B4FF2FF331A400283028B4FF6FF7364
:1059200003EA01231A4302837047F0B50C4615467B
:10593000002200210026078C4FF6EF7C07EA0C07B7
:105940000784028B018C4FF6FF7707EA041640F6B6
:10595000FF473A404FF6FF7707EA03373A434FF6DF
:10596000FF7707EA05273A438F4FB8420ED08F4F93
:10597000B8420BD0B0F1804F08D08D4FB84205D05F
:105980008C4FB84202D08C4FB84206D14FF6DF7729
:10599000394046F01007394305E04FF65F7739404C
:1059A00044F01007394302830184F0BD028B4FF6A7
:1059B000F3731A400283028B0A4302837047F0B5E7
:1059C0000C46154600220021068C4FF6FE773E401D
:1059D0000684028B018C4FF60C7632407E1C06EA60
:1059E00003162E433243704EB0420ED06F4EB0427B
:1059F0000BD0B0F1804F08D06D4EB04205D06D4E47
:105A0000B04202D06C4EB04206D14FF6FD76314026
:105A100044F00106314305E04FF6F576314044F09D
:105A20000106314302830184F0BD70B505460C4682
:105A30005D4885420ED05D4885420BD0B5F1804F60
:105A400008D05B48854205D05A48854202D05A4862
:105A5000854200D100E000BF208850B92389A28888
:105A600061882846FFF7ABFFE1882846FFF79EFFD5
:105A700025E0208804280AD12389A2886188284645
:105A8000FFF753FFE1882846FFF742FF17E0208821
:105A900008280AD12389A28861882846FFF7FBFEDF
:105AA000E1882846FFF7EEFE09E02389A288618895
:105AB0002846FFF7A6FEE1882846FFF795FE70BD51
:105AC0002DE9F04105460C4600260127608808B9FB
:105AD000022600E00026A088012801D1022700E06C
