:020000040800F2
:1000000028130020893F0008913F0008933F000813
:10001000953F0008973F0008993F00080000000046
:100020000000000000000000000000009B3F0008EE
:100030009D3F0008000000009F3F00084D38000869
:10004000A33F0008A33F0008A33F0008A33F000808
:10005000A33F0008A33F00085D200008A33F00085D
:10006000A33F0008A33F0008A33F0008A33F0008E8
:1000700087090008A33F000899090008B90900088A
:10008000CB090008DD090008A33F0008A33F0008D2
:10009000A33F0008A33F0008A33F00087320000807
:1000A000A33F0008A33F0008A33F0008A33F0008A8
:1000B000A33F0008A33F0008A33F00083F09000832
:1000C000630900085109000875090008A33F0008EA
:1000D000A33F0008090900081B0900082D090008B2
:1000E000A33F0008A33F0008A33F000800F002F868
:1000F00000F043F80AA090E8000C82448344AAF17F
:100100000107DA4501D100F038F8AFF2090EBAE87C
:100110000F0013F0010F18BFFB1A43F0010318473B
:10012000507F0000707F0000103A24BF78C878C16B
:10013000FAD8520724BF30C830C144BF04680C60ED
:10014000704700000023002400250026103A28BF35
:1001500078C1FBD8520728BF30C148BF0B60704739
:100160001FB59DE8030006F0D1FB06F05BFB1FBD49
:1001700010B5002006F045FD10BD06F024FC114628
:10018000FFF7EEFF02F0D1FB06F05CFC03B4FFF7D3
:10019000EFFF03BC06F092FC7047FE4AD0F848130C
:1001A000914203D10021FC4A116010E0FB4AD0F8D3
:1001B0004813914203D10021F94A116007E0F94A3E
:1001C000D0F84813914202D10021F74A11607047DC
:1001D0002DE9F04F93B004460E4692469B461F9F72
:1001E000204606F032FE044604F5CC7006F02DFEE3
:1001F000A0F5CC74002084F8540384F855B3032090
:1002000084F8560318208DF84B0003208DF84A001F
:100210008DF8460004208DF84700012E35D1DD48C9
:10022000C4F848034FF0250894F8550350B1DF484F
:10023000C4F844034FF00E097003C4F84C03401097
:10024000C4F85003D4480460012F10D1012144F2B6
:10025000090005F015F90121042004F024FD4020D7
:10026000ADF848008020ADF84400D14DA1E0012157
:1002700044F2050005F004F94FF40070ADF84800B1
:100280004000ADF84400CB4D93E0022E3BD1C34873
:10029000C4F848034FF0260894F8550358B1C348F2
:1002A0003C30C4F844034FF011098004C4F84C03F7
:1002B0004010C4F85003BA480460012F13D1012143
:1002C000480405F0EAF80121212005F0D9F80121C0
:1002D000082004F0E8FC2020ADF848004020ADF8EC
:1002E0004400B54D65E00121480405F0D6F8012130
:1002F000052005F0C5F80420ADF848000820ADF849
:100300004400AC4D55E0032E53D1A648C4F8480331
:100310004FF0270894F8550358B1A4482838C4F87A
:1003200044034FF00C092020C4F84C031020C4F8FB
:1003300050039D480460012F13D10121880405F06A
:10034000ACF80121112005F09BF801219B4804F035
:10035000AAFCB802ADF848004000ADF84400984D42
:1003600027E0112F15D10121880405F096F801210D
:10037000212005F085F801219048203004F093FCFD
:100380004FF48070ADF848004000ADF844008A4D4D
:100390000FE00121880405F080F80121092005F013
:1003A0006FF84FF48060ADF848004000ADF84400AD
:1003B0007F4D12A9284604F0A5FB11A9284604F098
:1003C000A1FBCDF834A02198ADF838002298ADF803
:1003D0003A002098ADF83C000020ADF840000C2019
:1003E000ADF83E000DA9D4F8480305F0FEFF012149
:1003F000D4F8480306F085F894F8550340B3012279
:100400008021D4F8480306F0ADF80121084605F034
:100410002AF8D4F84803001D019004F54C700290AE
:10042000102003900020049005908020069000206A
:100430000790089009900A900B9001A9D4F8440302
:1004400004F0EAF90021D4F8440304F010FA06E0BD
:10045000002240F22661D4F8480306F05EF81C98AA
:1004600030B1012809D002280CD004280FD113E0A4
:100470004FF4E06003F098FE13E04FF4C06003F027
:1004800093FE0EE04FF4A06003F08EFE09E04FF4FF
:10049000806003F089FE04E04FF4407003F084FEB6
:1004A00000BF00BF8DF830801D988DF831001E9878
:1004B0008DF8320001208DF833000CA803F079FE8E
:1004C000012240F22551D4F8480306F026F894F8AA
:1004D0005503D0B18DF830901D988DF831001E98DD
:1004E0008DF832000CA803F064FED4F844030068D1
:1004F00040F00200D4F844130860D4F844030068C4
:1005000040F00800D4F844130860204613B0BDE85A
:10051000F08F2DE9F04104460E461546AAB2314649
:10052000204606F066FC94F8550378B394F854031B
:1005300060BB204606F085FC002827DD012084F8FA
:100540005403204606F07DFC142810DC204606F0FB
:1005500078FCD4F844134860204606F072FC074645
:100560003A4604F54C71204606F01EFC09E01420C2
:10057000D4F844134860142204F54C71204606F068
:1005800013FC0121D4F8440304F071F994F85503E5
:10059000F0BB17E000380140040000200044004098
:1005A00008000020004800400C00002044000240E9
:1005B000000C01400008014000140140100014002C
:1005C0000010014094F8540310BB204606F039FC9B
:1005D000002820DD40F22661D4F8480306F0ACF88C
:1005E000012240F22661D4F8480305F096FF40212D
:1005F000D4F8480306F060F8012084F85403BE499B
:10060000204606F092FBBC490978D4F8480300E084
:1006100001E005F0E3FF0120BDE8F08170B504467C
:100620000E46154604F5CC7006F00BFCA84201DA24
:10063000002070BD2A46314604F5CC7006F0B4FBAC
:100640000120F6E710B5044604F5CC7006F0F9FB7E
:1006500010BD38B5044640F22551D4F8480306F0E1
:1006600041F888B1D4F8480305F0BCFFC0B2694630
:10067000009004F5CC7006F076FB40F22551D4F8DA
:10068000480306F059F800BF40F22771D4F8480338
:1006900006F028F8E0B1204606F0D3FB002809DD7B
:1006A0009649204606F041FB94490978D4F848035E
:1006B00005F094FF204606F0C4FB48B9002240F242
:1006C0002771D4F8480305F028FF002084F854036C
:1006D00040F22661D4F8480306F004F8E0B1204661
:1006E00006F0AFFB002809DD8549204606F01DFB1A
:1006F00083490978D4F8480305F070FF204606F0D6
:10070000A0FB48B9002240F22661D4F8480305F066
:1007100004FF002084F8540338BD70B50446D4F8B3
:100720004C0304F0BFF801283AD1D4F8500304F088
:10073000ECF8D4F84C0304F0C9F80021D4F84403D1
:1007400004F095F8204606F07CFB002825DD2046C5
:1007500006F077FB142810DC204606F072FBD4F874
:1007600044134860204606F06CFB05462A4604F513
:100770004C71204606F018FB09E01420D4F844130D
:100780004860142204F54C71204606F00DFB01214F
:10079000D4F8440304F06BF802E0002084F854031A
:1007A00070BDFEB506460C4600270025002C01DA78
:1007B0000127644200BF681CC5B20A2094FBF0F117
:1007C00000FB11403030C0B2C5F10A010DF8010044
:1007D0000A2094FBF0F4002CEDD1012F07D12D213C
:1007E000681CC0B20546C0F10A000DF800100DF1FA
:1007F0000A00411B2A463046FFF78BFE3046FEBDFD
:100800002DE9F04786B0804614461D464FF0000A99
:100810000026002213462046294606F0ADFD03D2ED
:100820004FF0010A85F0004598F8569307E0002242
:10083000344B2046294606F0DBFD04460D465FEAB0
:100840000900A9F1010101F0FF09F0D12046294674
:1008500006F052FD074600BF701CC1B20E4698F864
:100860005603401C814205D12E20C6F1140101AA75
:1008700050540CE00A20B7FBF0F100FB117030304F
:10088000C6F1140101AA50540A20B7FBF0F7002F5B
:10089000E2D198F85603801CB042DDDCBAF1010FBA
:1008A00007D12D21701CC0B20646C0F1140001AA68
:1008B000115406A8811B32464046FFF72AFE4046E7
:1008C00006B0BDE8F08780F85613704770B506464D
:1008D0000C460025002001E06D1C401C215C002915
:1008E000FAD12A4621463046FFF713FE304670BD46
:1008F000014691F8550370470000002001000020D8
:10090000020000200000244010B53C48006818B1E7
:100910003A480068FFF79DFE10BD10B538480068E2
:1009200018B137480068FFF794FE10BD10B5354880
:10093000006818B133480068FFF78BFE10BD10B592
:100940003148006818B13048006800F0BAFF10BDA7
:1009500010B52E48006818B12C48006800F0B1FFAF
:1009600010BD10B52848006818B12748006801F08C
:10097000A7F910BD10B52548006818B123480068D4
:1009800001F09EF910BD10B51E48006818B11D4851
:100990000068FFF7C2FE10BD10B51848006818B116
:1009A00016480068FFF7B9FE1848006818B11748E4
:1009B000006801F0B3F910BD10B51448006818B113
:1009C0001248006801F0B1F910BD10B50E4800687A
:1009D00018B10D48006801F0A1F910BD10B5084824
:1009E000006818B106480068FFF797FE06480068DF
:1009F00018B10548006801F098F910BD0400002006
:100A0000080000200C00002010000020140000202E
:100A10002DE9F04704460E461746E08807F09AF89D
:100A20008146D849384606F09BFF8246494607F082
:100A3000D9F8804607F056F885B2012E06D0022E6E
:100A400007D0032E08D0042E0DD108E0206885863B
:100A500009E02068058706E02068858703E02068B4
:100A6000A0F8405000BF00BFBDE8F0872DE9FF5F50
:100A700004460D4616461F46DDF83880E08807F02C
:100A800069F8C0490190284606F06AFF0090019974
:100A900007F0A8F8834607F025F81FFA80F9E088E8
:100AA00007F058F8B7490190304606F059FF00901A
:100AB000019907F097F8834607F014F81FFA80FAB7
:100AC000E08807F047F8AF490190384606F048FF44
:100AD0000090019907F086F8834607F003F880B28A
:100AE0000390E08807F036F8A6490190404606F0EA
:100AF00037FF0090019907F075F8834606F0F2FF82
:100B000080B202902068A0F834902068A0F838A045
:100B100003982168888702982168A1F84000BDE801
:100B2000FF9F2DE9F05F04460D4616461F46DDE99E
:100B30000CABDDE90A8925600121042004F0A0FC4A
:100B40000121082004F09CFC0121084604F098FCD7
:100B5000B5F1804F1CD10121084604F09EFC06F03F
:100B60000100022101EA47010843042101EA88014A
:100B70000843082101EAC901084320810321A17229
:100B80001821E17204F108017F4803F0BBFF48E03F
:100B90007E48854225D10121022004F07EFC4020C0
:100BA00000EA8610802101EAC71108432081032151
:100BB000A1721821E17204F10801734803F0A2FF49
:100BC00008F00100022101EA4901084320810321C4
:100BD000A1721821E17204F108016D4803F092FF3F
:100BE0001FE06C4885421CD10121042004F055FC13
:100BF000402000EA8610802101EAC7110843A915A8
:100C000001EA08210843691501EA492108432081C6
:100C10000321A1721821E17204F108015C4803F07C
:100C200071FFE088401E2082A088401EA081002124
:100C30006182E18104F10C01284604F059FD602035
:100C4000E082012121830021E183E08800EBD07163
:100C50004910A18304F11601284604F086FD0821FD
:100C6000284605F0D1F9E08800EBD0714910A18346
:100C700004F11601284604F0BAFD0821284605F0C3
:100C8000CCF9E08800EBD0714910A18304F1160182
:100C9000284604F0F9FD0821284605F0CBF9E08844
:100CA00000EBD0714910A18304F11601284604F02D
:100CB00036FE0821284605F0C6F90121284605F030
:100CC00073F8BDE8F09FF0B50446059D012012E0E1
:100CD000B1FBF0F600FB16165EB9B1FBF0F64FF66D
:100CE000FF77BE4205D2A080B1FBF0F6E680012579
:100CF00004E0461CB0B2B0F5966FE9DD00BFCDB997
:100D0000012013E0B1FBF0F2B1FBF0F600FB16138B
:100D10004FF6FF76B24207D247F6F676B34203D2D9
:100D2000A080E280012504E0461CB0B2B0F5966FC9
:100D3000E8DD00BFF0BD2DE9F84780460C460025F0
:100D4000154890FBF4F690FBF4F104FB11074FF00B
:100D500000094FF0000A3FB953464A463146404623
:100D60000095FFF7B0FF0AE0B7F5004F00D9761CF9
:100D700053464A46314640460095FFF7A4FFBDE87A
:100D8000F88700000000C84200080140000400404D
:100D9000000C01400008004000A24A0430B591B0A8
:100DA00004460D460121084604F05DFB012148027E
:100DB00004F066FB0121084604F062FB4FF400409A
:100DC00004F0C2FA7F4803F085FC7F48019002944A
:100DD0000020039094F824000490002005908020C7
:100DE00006904000079080000890202009900002A3
:100DF0000A9000200B9001A9724803F00DFD01211B
:100E0000704803F034FD00200C9001208DF8340070
:100E10008DF835004FF460200E9000200F9094F86C
:100E200024008DF840000CA967484C3803F051FAB3
:100E30000AE094F82430206AC15C581CC2B207232F
:100E400061484C3803F0DDFA14F8241F2078401E66
:100E500004F824090029ECD101215B484C3803F047
:100E60006FFA012158484C3803F05FFA56484C3865
:100E700003F07DFA00BF54484C3803F07DFA002897
:100E8000F9D151484C3803F081FA00BF4E484C3834
:100E900003F081FA0028F9D101214B484C3803F0C6
:100EA00084FA11B030BD2DE9FF4F85B004468A4663
:100EB00093460027002502AEA846A94686F800A062
:100EC00086F801B00898B0701298F07013983071DD
:100ED000149870711598B0711698F0711798307257
:100EE0001898707242E0F01910F8010C217D8842C8
:100EF00004DDF01910F8010C002837DDF01910F8A6
:100F0000010C216A4855206A405D082812DA2F48F2
:100F10000068A16941F82500206A405D2C4931F83C
:100F20001000E16921F81500E06930F8150040EA89
:100F3000080819E0206A405D082803D0206A405D57
:100F4000092811D121484068A16941F82500206A8B
:100F5000405D1F4931F81000E16921F81500E06992
:100F600030F8150040EA0909681CC5B23846791CFA
:100F7000CFB20A28B7D184F8245000270025B8F151
:100F8000000F0CD00121042004F07AFAADF804809F
:100F900000208DF8070001A90E4803F0B3FDB9F158
:100FA000000F0CD00121082004F06AFAADF804907B
:100FB00000208DF8070001A9074803F0A3FD09B040
:100FC000BDE8F08F080002404C24014018000020CA
:100FD0002400002000080140000C014010B5044628
:100FE00057496068884204D10121042004F048FA7E
:100FF00034E054496068884204D10121082004F09B
:101000003FFA2BE050496068884204D1012110204A
:1010100004F036FA22E04D496068884204D101218B
:10102000202004F02DFA19E049496068884204D173
:101030000121402004F024FA10E04649606888420B
:1010400004D10121802004F01BFA07E042496068C6
:10105000884203D10121801504F012FA10BD2DE958
:10106000F84304460F4615461E46DDF820802670DC
:1010700084F80180676025812046FFF7AFFF37487D
:1010800030F81500ADF800008DF802808DF803608F
:101090006946606803F036FD2046BDE8F88370B508
:1010A00004460D46002D07DD22892C4B33F8121023
:1010B000606803F0D4FD06E02289284B33F8121053
:1010C000606803F0CEFD70BD10B504462289234B45
:1010D00033F81210606803F0A8FD08B9002010BDB5
:1010E0000120FCE710B5044622891C4B33F812108E
:1010F000606803F09AFD38B12289184B33F812105A
:10110000606803F0AEFD06E02289144B33F812103C
:10111000606803F0A4FD10BD38B504460D46208973
:101120000E4931F81000ADF8000060788DF802002B
:101130008DF803506946606803F0E4FC38BD000098
:1011400000080140000C0140001001400014014063
:1011500000180140001C014000200140DA7F000817
:101160000168098841F4004102681180016809881A
:1011700021F40041026811807047F8B506460C461C
:10118000154603208DF8020004208DF80300ADF809
:1011900000406946FE4803F0B5FCADF800506946D2
:1011A000FB4803F0AFFCF8BDF8B504460D46164603
:1011B0000121082004F064F9F6492068884209D129
:1011C000207A38B10121084604F05AF901210220A1
:1011D00003F069FD03208DF802001C208DF8030048
:1011E000ADF800506946EA4803F08CFCADF80060A9
:1011F0006946E74803F086FCF8BD70B505460C4625
:10120000204601F033FB70BD2DE9F84307468846C0
:1012100015461C46002648E00021404604F03DF9F2
:101220000121082004F02CF903208DF80200102081
:101230008DF80300ADF800506946D54803F062FC14
:10124000ADF800406946D24803F05CFC2946D0481E
:1012500003F007FD2146CE4803F003FD0521384683
:10126000FFF7CBFF2946CA4803F0F9FC05213846B1
:10127000FFF7C3FF2146C64803F0F1FC05213846BD
:10128000FFF7BBFF224629463846FFF776FF0121CC
:10129000404604F01CF90021404604F018F90121F1
:1012A000404604F0FAF8701CC6B24FF400313868BA
:1012B00003F034FF08B1142EAEDB142E02D100204F
:1012C000BDE8F8830120FBE770B505460C462046D3
:1012D00001F0BCFA70BD70B505460C46204601F021
:1012E000D5FA70BD0146AC4A0868904201D102208F
:1012F00070470120FCE72DE9F04F91B004462046ED
:10130000FFF7F0FF012813D147054FF01F0A4FF0F8
:10131000200B607A18B14FF010084FF01109207AB5
:1013200018B14FF480756E0012E0402580260FE062
:101330004FF480073D136E004FF0210A4FF0220B4F
:10134000607A18B14FF00E084FF00F09934804600F
:101350002046FFF705FF2068008820F00100216883
:101360000880607A38B1D4F8B40203F0B3F9D4F845
:10137000B80203F0AFF90121384604F0A8F80021C3
:10138000384604F0A4F80121384604F086F83346C4
:101390002A4639462046FFF737FF28B91020207427
:1013A000002011B0BDE8F08F324629462046FFF7F5
:1013B000FBFE607A28B12068808840F400602168D4
:1013C000888060680D900020ADF838004BF6FF7003
:1013D000ADF83A000020ADF83C004FF48060ADF865
:1013E0003E000001ADF840000DA9206803F0F1FCBB
:1013F000607A10B30121084604F035F8002005900A
:101400000690802007900020089009904FF44050EB
:101410000B9000200A900C90206810300290102051
:10142000049002A9D4F8B40203F0F6F90020049065
:1014300002A9D4F8B80203F0EFF901208DF80700F3
:101440008DF804A0A07A8DF80500E07A8DF80600EA
:1014500001A802F0AEFE2068808840F40070216888
:1014600088808DF804B0207B8DF80500607B8DF8B6
:10147000060001A802F09DFE2068808840F480707C
:1014800021688880607A30B12068808820F480608C
:101490002168888005E02068808840F480602168A9
:1014A0008880607AA8B38DF80480A07B8DF8050051
:1014B000E07B8DF8060001A802F07BFED4F8B402B0
:1014C000006840F00200D4F8B4120860D4F8B40206
:1014D000006840F00800D4F8B41208608DF8049059
:1014E000A07B8DF80500E07B8DF8060001A802F0D6
:1014F00060FED4F8B802006840F00200D4F8B812D8
:101500000860D4F8B802006840F00800D4F8B812B7
:1015100008600120207400BF43E72DE9F05F044616
:101520000D4616461F46DDE90CABDDE90A8904F1DC
:10153000140005F0EFFBA0F114046672607AB8B1F4
:1015400000214FF4337001514FF437700151802165
:101550004FF4347001510021001D0151001D015153
:101560004FF440514FF4387001510021001D0151DA
:101570006760012D25D107482060607AB8B108481E
:10158000C4F8B40206481430C4F8B802800409E074
:10159000000C01400054004000580040140000209E
:1015A0006C000240C4F8AC020011C4F8B002FE485E
:1015B0000460B8F1000F01D0012000E0002020728B
:1015C00015E0FA482060607A68B1F948C4F8B402BE
:1015D000F7481430C4F8B8024FF40030C4F8AC0235
:1015E0000011C4F8B002F34804600020207284F8AF
:1015F0000AA084F80BB00E9820730F9860731098AF
:10160000A0731198E0732046FFF775FEB9F1000F43
:1016100009D0B9F1010F0BD0B9F1020F0DD0B9F11A
:10162000040F0FD113E04FF4E06002F0BDFD13E0B2
:101630004FF4C06002F0B8FD0EE04FF4A06002F07D
:10164000B3FD09E04FF4806002F0AEFD04E04FF41A
:10165000407002F0A9FD00BF00BF607A18B1206899
:101660001030C4F8BC022046BDE8F09F0146087C5B
:10167000102801D1002070470120FCE710B5044676
:101680002046FFF7F3FF08B9022010BD04F1140053
:1016900005F034FB002801DD0020F6E70120F4E727
:1016A00010B50446207C102801D1002010BD207CFC
:1016B00022280AD12068808A38B92068008B20B996
:1016C000102020742046FFF74BFD2068008B00F0AF
:1016D0000300022806D1102020742046FFF740FDA9
:1016E0000020E3E7207C012826D104F1140005F056
:1016F00005FB002820DD4FF40031206803F00EFDCB
:1017000030B1102020742046FFF72AFD0020CDE7DD
:1017100004F5277104F1140005F0AAFA20202074C2
:10172000002060820121206803F00DFC0121206867
:1017300003F0F1FB0120B9E704F1140005F0DEFA33
:1017400008B90220B2E70120B0E710B5044604F161
:10175000140005F0D7FA10BD2DE9F04705460F46F5
:1017600090461E464FF000094FF0010A21E000BFED
:101770002846FFF783FF0446012C0AD18246287CC5
:10178000012800D116E0287C102807D14FF0000A6C
:1017900010E0022C02D14FF0000A0BE009F1010029
:1017A0001FFA80F94FF6FE70814502DD4FF0000A06
:1017B00000E0DCE700BFBAF1010F17D0B8F1000F6D
:1017C00002D02846FFF7C1FF06B1012717B128460E
:1017D000FFF791FD3EB12846FFF750FF18B92846A4
:1017E000FFF75EFFC4E70020BDE8F0870120FBE7BC
:1017F0002DE9FF5F82460F4690461D46DDE90FB991
:101800000E9EB8F1FF0F18D106208DF800000020C1
:101810008DF80C008DF807600290002408E029780C
:101820000DF1020001552878401C2870601CC4B2DC
:10183000B442F4DB8DF801703AE0012E20DB03D1D5
:1018400004208DF8000002E005208DF80000002043
:101850008DF80C00701CC0B28DF8070000200290BB
:101860008DF80280012406E029780DF1020001556F
:101870006D1C601CC4B2B442F6DD8DF8017017E037
:10188000B9F1010F03DD02208DF8000005E0B9F188
:10189000010F02D101208DF800008DF80C9001207D
:1018A0008DF80700CDF808B08DF802808DF8017032
:1018B00069460AF1140005F0FDF9012004B0BDE805
:1018C000F09F10B50446206803F01BFC3A490860FD
:1018D00008463A4A0168881A914271D008DC1029FA
:1018E0006FD06FF44030084460B101286AD1BCE089
:1018F000042868D0A0F580204238002873D0022840
:10190000F4D132E1207C20283DD1607A58B12068A2
:10191000808820F48060216888802068808840F476
:1019200000602168888040F29D22115D00222068BD
:1019300003F047FB22202074607A002822D094F81C
:101940009C02042806DB40F2A320015D4FF43270B4
:10195000015103E001214FF43270015104F29E2045
:101960004FF43071085110214FF43170015104F5DA
:101970002F71D4F8B40202F04FFF0121D4F8B40261
:1019800002F075FF5CE0207C212859D140F29D22B5
:10199000115D0122206803F014FB30202074607A6E
:1019A00000B394F89C020FE01000002000580040A3
:1019B00044000240140000204400002040000300C6
:1019C00060E06DE172E167E101280DD12068808857
:1019D00040F48060216888802068808820F400605E
:1019E000216888802CE02CE02068808840F48050BA
:1019F000216888802068808820F480602168888041
:101A00002068808840F40060216888804FF42A7044
:101A1000015D4FF4327001514FF4297001594FF4B8
:101A2000307001510021001D015104F52F71D4F8CF
:101A3000B80202F0F1FE0121D4F8B80202F017FF5B
:101A400034E1607A80B940F29E22115D206803F093
:101A5000B2FA608A401C608240F2A320005D401E02
:101A6000C1B240F2A320015520E194F89C02012864
:101A700007D10021206803F066FA0121206803F0F5
:101A800056FA13E1207C30286ED1607A60B394F866
:101A90009C02012868D1206803F08FFA4FF4297165
:101AA000095908702068808820F480602168888047
:101AB00004F1140005F022F9002812DD04F5277165
:101AC00004F1140005F0D4F8202020740020608276
:101AD0000121206803F037FA0121206803F01BFA86
:101AE00042E0012020743FE0206803F066FA4FF4E2
:101AF0002971095908704FF429700059401C4FF49E
:101B000029710851081D005D401EC1B24FF42A70B2
:101B10000155005D012808D10021206803F013FA67
:101B20000121206803F003FA1EE04FF42A70005DE3
:101B3000D0B904F1140005F0E1F8002812DD04F535
:101B4000277104F1140005F093F820202074002080
:101B500060820121206803F0F6F90121206803F07A
:101B6000DAF901E001202074A0E0207C222879D15C
:101B7000607A88B3D4F8B40202F090FE00282AD12B
:101B8000207C2228FBD10021D4F8B40202F06FFEA1
:101B900094F89C02042823DB0121206803F0C7F994
:101BA00004F1140005F0AAF8002816DD04F52771E9
:101BB00004F1140005F05CF82020207400206082FD
:101BC0000121206803F0BFF9206803F09AFA01218F
:101BD000206803F0A0F95EE009E0012020745AE0DB
:101BE000212020740121206803F095F953E040F290
:101BF000A320005D002811DD638A5A1C628204F272
:101C00009E22D15C206803F0D6F940F2A320005D4B
:101C1000401EC1B240F2A32001553CE094F89C0262
:101C2000042823DB0121206803F081F904F114006A
:101C300005F064F8002816DD04F5277104F114009E
:101C400005F016F820202074002060820121206811
:101C500003F079F9206803F054FA0121206803F0B9
:101C60005AF918E009E00120207414E021202074C2
:101C70000121206803F04FF90DE046480078401C30
:101C80004449087008460078032804DD2046FFF721
:101C900067FA1020207409E0206803F08EF905E04F
:101CA0002046FFF75DFA1020207400BF00BF3A48BD
:101CB00000683A49884202D000203649087010BDB9
:101CC00010B503461868808A00F470644FF2FF0074
:101CD0001968888204F4807058B11868008840F44C
:101CE0000040196808801868008820F400401968CE
:101CF000088004F4007058B11868008840F400406F
:101D0000196808801868008820F400401968088065
:101D10001846FFF725FA1020187410BD20490968ED
:101D20001F4909681E4A5160704710B504461C4897
:101D30000068D4F8AC12084018B30021D4F8B802F7
:101D400002F095FD0121206803F0F1F804F1140080
:101D500004F0D4FF002815DD04F5277104F1140008
:101D600004F086FF2020207400206082206803F0A9
:101D7000C8F90121206803F0E6F80121206803F08A
:101D8000CAF801E001202074054800680449486051
:101D900010BD00004800002044000020840007001F
:101DA0000000024010B51A48006818B118480068D1
:101DB00000F0CDF810BD10B51648006818B11548F0
:101DC000006800F0C4F810BD10B51348006818B1E1
:101DD0001148006800F0BBF810BD10B50F4800684E
:101DE00018B10E48006800F0B2F810BD10B50C48EC
:101DF000006818B10A48006800F0A9F810BD10B5D5
:101E00000848006818B10748006800F0A0F810BD45
:101E10004C000020500000205400002058000020FA
:101E20005C0000206000002070B50446A07D20B159
:101E30000020A0757C48A0611BE0607DC8B12069CE
:101E400005F0F4FC0546794A794B05F0CFFB0DD23D
:101E5000206905F0EBFC0546764A774B05F08CFAD5
:101E600004D27649206905F0BDFEA0610020206102
:101E7000607570BD2DE9F04385B004460D461646E9
:101E80001F46DDE90C8925606660102000218DE881
:101E90008003CDE90310606802892823416804F1BA
:101EA000080000F00AFAA0F108046068008908B987
:101EB0006348046060680089401F052827D2DFE876
:101EC00000F0030A11181F0060680089052801D17D
:101ED0005C4804601BE060680089062801D15A480C
:101EE000046014E060680089072801D15748046045
:101EF0000DE060680089082801D15548046006E0BB
:101F000060680089092801D15248046000BF00BF01
:101F100000212068FFF7C3F800216068FFF7BFF8D1
:101F20000020A06120616075A075204605B0BDE865
:101F3000F08310B5044604F1080000F04FF904F1F5
:101F4000080000F0EDF9A0F10804204610BD2DE9CD
:101F5000F0478246DAF80400FFF7B6F850B101F016
:101F60008BFC044604F08AFFCAF8100001208AF8AE
:101F7000140029E0DAF8100005F058FC04460D467C
:101F800001F07AFC064622462B4605F065FB8046AA
:101F900004F074FFCAF810009AF8140038B10AF17E
:101FA000080000F01BF901208AF815000CE0DAF8AF
:101FB000100005F03BFC04461E4A1F4B05F016FBC3
:101FC00002D801208AF81600BDE8F08710B5044653
:101FD0000020207500216068FFF761F8012120686A
:101FE000FFF75DF804F1080000F088F90F211A48A6
:101FF00001F07EFC00212068FFF751F810BD10B5FC
:102000000446607D08B9A07D10B12046FFF70CFFA3
:10201000A06910BD10B504462046FFF7D7FF204643
:10202000FFF7EDFF10BD000000FF7F47691D554D14
:1020300010751F3FB81E85EB51B89E3F00D08446F7
:102040004C000020500000205400002058000020C8
:102050005C000020600000209800002010B50120E6
:1020600002F0D6FC20B1012002F0E3FCFFF79AFE5B
:1020700010BD10B5202002F0CBFC20B1202002F0D2
:10208000D8FCFFF798FE402002F0C2FC20B14020AF
:1020900002F0CFFCFFF798FE802002F0B9FC20B1DF
:1020A000802002F0C6FCFFF798FE4FF4807002F02B
:1020B000AFFC28B14FF4807002F0BBFCFFF796FE36
:1020C0004FF4007002F0A4FC28B14FF4007002F04D
:1020D000B0FCFFF794FE10BD10B50446944920688B
:1020E000884204D10121042003F0CAF934E0914967
:1020F0002068884204D10121082003F0C1F92BE0B7
:102100008D492068884204D10121102003F0B8F9DC
:1021100022E08A492068884204D10121202003F06E
:10212000AFF919E086492068884204D10121402096
:1021300003F0A6F910E083492068884204D1012108
:10214000802003F09DF907E07F492068884203D191
:102150000121801503F094F90121084603F090F95C
:1021600010BDF8B504460E4671492068884201D179
:10217000002522E06F492068884201D101251CE03A
:102180006D492068884201D1022516E06B4920681C
:10219000884201D1032510E069492068884201D1B5
:1021A00004250AE067492068884201D1052504E03A
:1021B00065492068884200D10625A088634931F826
:1021C0001000ADF800008DF803606946206802F049
:1021D00099FC2179284602F0ABFDF8BD81885C4A64
:1021E00052F821105B4A11605A49143909688288F3
:1021F000574B53F822209143564A143A11607047C6
:102200007CB504460D461646A188514A52F8210075
:1022100002F00FFCA0884E4951F8200000908DF884
:1022200004508DF8056001208DF80600684602F024
:1022300089FB2046FFF7D2FF7CBD2DE9F843054618
:102240000E4617469846A888102820D2DFE800F0EE
:10225000080A0C0E10121314151618191A1B1C1D3F
:10226000062416E0072414E0082412E0092410E0F4
:102270000A240EE000BF00BF00BF00BF172408E023
:1022800000BF00BF00BF00BF00BF282401E017242B
:1022900000BF00BF304951F8260001F085FF8DF8DE
:1022A00000408DF801708DF8028001208DF8030048
:1022B000684601F07EFFBDE8F8832DE9F05F044633
:1022C0000D4616461F46DDE90CABDDE90A8925609F
:1022D000A6802046FFF700FF39462046FFF741FF62
:1022E00053464A4641462046FFF7A7FF5946204637
:1022F0000E9AFFF785FF2046BDE8F09F8188144ABB
:1023000052F82110134A1160124914390968828861
:102310000F4B53F8222011430E4A143A11607047B4
:1023200010B504462046FFF759FF204610BD0000B7
:1023300000080140000C0140001001400014014061
:1023400000180140001C0140002001403C800008B2
:10235000FC7F0008140401405C800008704730B521
:10236000039C01608371012A06D0022A07D0032A48
:1023700008D0042A0CD108E00125C57108E0022527
:10238000057205E00325457202E00425857200BF51
:1023900000BF30BD704710B50446E07920B1E17947
:1023A00000222068FEF734FB207A20B1217A002237
:1023B0002068FEF72DFB607A20B1617A0022206848
:1023C000FEF726FBA07A20B1A17A00222068FEF752
:1023D0001FFB012000F05AFAE07920B1E179384A78
:1023E0002068FEF715FB207A20B1217A344A206854
:1023F000FEF70EFB607A20B1617A314A2068FEF761
:1024000007FBA07A20B1A17A2D4A2068FEF700FBD5
:1024100010BD2DE9F04104460D4600262846E91777
:1024200005EB917189103C318EB2E07940B13046B4
:1024300005F090FB0746E1793A462068FEF7E8FA96
:10244000207A40B1304605F085FB0746217A3A46AE
:102450002068FEF7DDFA607A40B1304605F07AFB7D
:102460000746617A3A462068FEF7D2FAA07A40B170
:10247000304605F06FFB0746A17A3A462068FEF722
:10248000C7FABDE8F0812DE9F04104460E46154635
:102490000027A07918B1C5F1640087B200E02F468B
:1024A000384605F057FB8046424631462068FEF725
:1024B000AFFABDE8F0817047014600207047000088
:1024C00000008C420160C280704770477FB50446AF
:1024D0000D462DB10123002219462068FFF73CF973
:1024E0000D20039000200122CDE90020029003ABD3
:1024F0002422D0212068FFF77BF9002003900122DD
:10250000CDE90020029003AB6A22D0212068FFF7BA
:102510006FF90220039000200122CDE900200290F3
:1025200003AB3722D0212068FFF762F92068FFF75C
:10253000B7F810B9002004B070BD45B100230122E6
:1025400011462068FFF708F908B90020F3E70120D9
:10255000F1E77FB504460D462DB10123002219464F
:102560002068FFF7F9F8002003900122CDE9002050
:10257000029003AB6B22D0212068FFF739F90220CB
:10258000039000200122CDE90020029003AB372206
:10259000D0212068FFF72CF90720039000200122AA
:1025A000CDE90020029003AB1922D0212068FFF76B
:1025B0001FF90720039000200122CDE9002002909E
:1025C00003AB6A22D0212068FFF712F9062003909E
:1025D00000200122CDE90020029003AB1A22D02175
:1025E0002068FFF705F91820039000200122CDE9AB
:1025F0000020029003AB1B22D0212068FFF7F8F8DF
:102600000920039000200122CDE90020029003ABB5
:102610001C22D0212068FFF7EBF82068FFF740F874
:1026200000212046FFF752FF4DB100230122114641
:102630002068FFF791F810B9002004B070BD0120A8
:10264000FBE7C18070470146C88870473EB5054624
:102650000C46684604F005FC207A000200B2617A5C
:1026600008430090A07A000200B2E17A084301908A
:10267000207B000200B2617B084302909DE80700C6
:1026800085E807003EBD3EB505460C46684604F0A9
:10269000E8FB207C000200B2617C08430090A07C33
:1026A000000200B2E17C08430190207D000200B2EC
:1026B000617D084302909DE8070085E807003EBD64
:1026C0000146887B000200B2CA7B104370471EB5EA
:1026D00002466846002303604360836000BF9DE8B4
:1026E000190082E819001EBD10B504462068FEF7E7
:1026F000BDFF10B12079682801D0002010BD207ADC
:1027000038B9607A28B9A07A18B9207B08B90220B4
:10271000F4E70120F2E72DE9F04F87B0044689463F
:1027200092469B4601F0A8F8454A03C2E08804F0AF
:1027300010FE07463A460B460020424904F084FC4E
:1027400005460E4640483E490CC803C904F084FFC4
:102750002A463346CDE9040104F00EFE03D20220DE
:1027600007B0BDE8F08F3648D0E90010364AC2E91C
:102770000010B9F1000F05D001230022194620688E
:10278000FEF7EAFF0E2104F108000022CDE9002047
:10279000029113463B22D0212068FFF729F801213E
:1027A000201D0022CDE90020029113467522D02180
:1027B0002068FFF71DF82068FEF772FF40B9206817
:1027C000FEF799FD49462046FFF7C3FE0020C7E704
:1027D0002046FFF789FF022806D149462046FFF729
:1027E000B8FE08B90020BBE7B9F1000F08D00023FC
:1027F000012211462068FEF7AFFF08B90020AFE7BD
:10280000BAF1000F0BD0214601A8FFF71FFF01A866
:1028100007C804AB07C304A9504604F027FBBBF16B
:10282000000F0BD0214601A8FFF72DFF01A807C814
:1028300004AB07C304A9584604F018FB01208FE736
:10284000700000200000F03F68000020002107E039
:102850004FF4FA5100BF0A00A1F1010399B2FAD175
:102860000200A0F1010398B2F2D1704710B5024600
:10287000002106E00A2100BF0B00A1F10104A1B272
:10288000FAD10300A0F10100F4D110BD30B5054626
:1028900003E04FF47A70FFF7D9FF2000A4F10104A0
:1028A000F7D130BD40E000F0E7FF234A10605160EF
:1028B00022480268436820490868496804F0CCFE51
:1028C0001F4A106051601F4A1F4B1D490868496824
:1028D00004F08CFE0DD8184801684068174A116052
:1028E00050601A4800F00DFD19480078401C184946
:1028F000087017480078022804D01E2806D0322815
:1029000006D104E0114800F029FE0CE00BE00AE0DB
:102910000F480078C72805DB00200D4908700B48D8
:1029200000F0ADFE00BF00BFBDE701F0BCFB0748F3
:1029300000F0E3FDFFF7B6FF7800002080000020E4
:1029400088000020FCA9F1D24D62603FD800002031
:10295000900000202DE9F0438BB004464FF00009B1
:10296000282101A803F034FF4CE020790B2843D242
:10297000DFE800F0423C36302A241E18120C060014
:102980000A982168498A08440A9000BF099821687A
:10299000098A0844099000BF08982168C989084439
:1029A000089000BF0798216889890844079000BFF4
:1029B0000698216849890844069000BF0598216857
:1029C00009890844059000BF04982168C988084413
:1029D000049000BF0398216889880844039000BFD1
:1029E0000298216849880844029000BF0198216834
:1029F00009880844019000E000BF00BF09F1010010
:102A000000F0FF09B9F1320FAFDB20790B2843D278
:102A1000DFE800F0423C36302A241E18120C060073
:102A200032210A98B0FBF1F00A9000BF32210998D8
:102A3000B0FBF1F0099000BF32210898B0FBF1F033
:102A4000089000BF32210798B0FBF1F0079000BF5B
:102A500032210698B0FBF1F0069000BF32210598B4
:102A6000B0FBF1F0059000BF32210498B0FBF1F00B
:102A7000049000BF32210398B0FBF1F0039000BF37
:102A800032210298B0FBF1F0029000BF3221019890
:102A9000B0FBF1F0019000E000BF00BF20790B28EF
:102AA0007ED2DFE800F08A7B6E6154473A2D201316
:102AB00006000A9804F04DFC07464A4A4A4B04F0C7
:102AC00097FC054604F0DAF9E06200BF099804F0CB
:102AD00040FC0746434A444B04F08AFC054604F098
:102AE000CDF9A06200BF089804F033FC07463D4AC8
:102AF0003D4B04F07DFC054604F0C0F9606200BF68
:102B0000079804F026FC0746364A374B04F070FC61
:102B1000054604F0B3F9206200BF069804F019FCE2
:102B20000746304A304B04F063FC054604F0A6F932
:102B3000E06100BF059804F00CFC0746294A2A4BC7
:102B400004F056FC054604F099F9A06100BF049812
:102B500004F0FFFB0746234A234B04F049FC0546DB
:102B600004F08CF9606100BF039804F0F2FB0746A3
:102B70001C4A1D4B04F03CFC054604F07FF9206123
:102B800000BF029804F0E5FB0746164A164B04F016
:102B90002FFC054604F072F9E06000BF019800E0E8
:102BA0000BE004F0D6FB05460E4A0F4B04F020FC68
:102BB000074604F063F9A06000E000BF00BF0BB05F
:102BC000BDE8F08310B5016002710023836000242A
:102BD000C460046144618461C461046244628462CB
:102BE000C46210BDB4D934E70C684A3F30B5039CC9
:102BF0000025056041608260C360046130BD70479C
:102C00002DE9F84F04460D462946E06804F0EAFF36
:102C100000902946A06804F0E5FF8246294604F0AA
:102C2000E1FF80462946606804F0DCFF83462946C0
:102C300004F0D8FF8246294604F0D4FF814641467D
:102C400004F020FE0746009904F01CFE06462169A8
:102C500004F018FE20602068BDE8F88F2DE9F84FD9
:102C6000044615462946E06804F0BCFF009029465A
:102C7000A06804F0B7FF8246294604F0B3FF8046FF
:102C80002946606804F0AEFF8346294604F0AAFF97
:102C90008246294604F0A6FF8146414604F0F2FD33
:102CA0000746009904F0EEFD0646216904F0EAFDAE
:102CB00020602068BDE8F88F0146486870470146EB
:102CC000886870470146C8687047014608697047C0
:102CD00010B5029C41608260C360046110BD0000B9
:102CE0007CB5044604F67820FFF734FE4FF42860E4
:102CF0000059C4F8F409D4F8840AC4F8F809FE4964
:102D0000D4F8880A04F06EFFC4F8FC09D4F88C0AE1
:102D1000C4F8000AD4F8900AC4F8040A012104F6A1
:102D2000BC20D4F8F429FFF799FFC4F8A80A0221BF
:102D300004F6BC20D4F8F829FFF790FFC4F8AC0AD9
:102D4000032104F6BC20D4F8002AFFF787FFC4F85B
:102D5000B00A042104F6BC20D4F8042AFFF77EFF51
:102D600004F6A824E060D4E9000104F08BFD0646D7
:102D7000A16804F087FD0546E16804F083FD206149
:102D8000E068009094E80E00A4F6A82404F53160F1
:102D900001F0AAF804F5316001F08DF800788DF8A3
:102DA000040004F5316001F086F840788DF80500E4
:102DB0007CBD2DE9F04F93B0044600200121049022
:102DC000CDE90501022103220790CDE90002CB4B9A
:102DD0000246CDE9021001212046FEF79EFB044683
:102DE0000020039004900590069001200721032203
:102DF0000023CDE9002102904FF4E132014604F5B1
:102E00003A70FDF7E5F9A0F53A74002003900490BC
:102E1000059006900120072103220023CDE900211F
:102E200002904FF4E132032104F5C860FDF7D0F9B8
:102E3000A0F5C864FF2003900490059009210522A5
:102E400006900423CDE9002102900322022104F61A
:102E5000082003F059FEA0F60824052204F60821F4
:102E600004F67820FFF7AEFEA0F67824A448A54B20
:102E7000A54AA649009004F6BC20FFF7B7FEA0F6CD
:102E8000BC2404F52D654FF080474FF001084FF04A
:102E90000009CA464FF4C876CB46CDF82080002002
:102EA000A880E88031462846FDF745FFCDE9026B52
:102EB000CDE9009A424639462846089BFDF731FE87
:102EC00000BFA5F52D6400200346012204F52D6105
:102ED000009004F6F820FFF742FAA0F6F82400204C
:102EE0000346022204F52D61009004F60430FFF73A
:102EF00036FAA0F6043404F6043204F6F82104F598
:102F0000316000F0CDFFA0F53164032010230B22C7
:102F10007F49009004F53260FEF7A1F8A0F5326415
:102F20000320282308227A49009004F62C30FEF76B
:102F300096F8A0F62C3401200021034604F62C322A
:102F4000CDE9001004F5326104F63830FEF792FF47
:102F5000A0F638340320102306226D49009004F6B1
:102F60005430FEF77CF8A0F65434032028230722BF
:102F70006749009004F53660FEF771F8A0F53664F5
:102F800001200021034604F53662CDE9001004F665
:102F9000543104F66C30FEF76DFFA0F66C346422F9
:102FA000214604F53960FFF78DFAA0F5396428222F
:102FB00058A109A803F0DAFB9DF8240084F8CA0997
:102FC0009DF8251040F6CB1001559DF8260084F899
:102FD000CC099DF8271040F6CD1001559DF828101A
:102FE000401C01559DF82910401C01559DF82A00F0
:102FF00084F8D0099DF82B0084F8D1099DF82C1095
:1030000040F6D21001559DF82D10401C01559DF839
:103010002E10401C01559DF82F0084F8D5099DF80D
:10302000301040F6D61001559DF83110401C015566
:103030009DF83210401C01559DF8330084F8D909E1
:103040009DF8341040F6DA1001559DF8350084F8EB
:10305000DB099DF8361040F6DC1001559DF837006D
:1030600084F8DD099DF8381040F6DE1001559DF812
:103070003910401C01559DF83A10401C01559DF82F
:103080003B0084F8E1099DF83C0084F8E2099DF8D2
:103090003D1040F6E31001559DF83E0084F8E40928
:1030A0009DF83F1040F6E51001559DF8400084F86A
:1030B000E6099DF8410084F8E7099DF8420084F88C
:1030C000E8099DF8430084F8E9099DF8441040F6AA
:1030D000EA1001559DF84510401C01559DF8461019
:1030E000401C01559DF84710401C01559DF84810A3
:1030F000401C015522E000000000C842801A060072
:103100005C8F0944AEA704C471BD3043B81EA1C191
:1031100000080140AAAA0000000000000000000012
:10312000000000000000000000000000000000009F
:103130000000000000000000000000009DF84900B1
:1031400084F8EF099DF84A104FF41F6001559DF86F
:103150004B0084F8F109204613B0BDE8F08F0A78DF
:1031600080F8CA294B7840F6CB12135470470A787E
:1031700080F8CC294B7840F6CD1213548B78521C32
:103180001354CB78521C1354704780F8D0197047F1
:103190000A7880F8D1294B7840F6D21213548B78F4
:1031A000521C1354CB78521C135470470A7880F881
:1031B000D5294B7840F6D61213548B78521C1354F1
:1031C000CB78521C135470470A7880F8D9294B7871
:1031D00040F6DA12135470470A7880F8DB294B78EE
:1031E00040F6DC12135470470A7880F8DD294B78DA
:1031F00040F6DE1213548B78521C1354CB78521CB9
:103200001354704780F8E11970470A7880F8E22972
:103210004B7840F6E312135470470A7880F8E4299B
:103220004B7840F6E5121354704780F8E619704762
:1032300080F8E719704780F8E81970470A7880F835
:10324000E9294B7840F6EA1213548B78521C135438
:10325000CB78521C13540B79521C13544B79521CCB
:10326000135470470A7880F8EF294B784FF41F62A7
:103270001354704780F8F1197047014601F6CA10DF
:103280007047014601F6CC107047014601F51D60FC
:103290007047014601F6D1107047014601F6D5107E
:1032A0007047014601F6D9107047014601F6DB1060
:1032B0007047014601F6DD107047014601F6E11046
:1032C0007047014601F6E2107047014601F6E4102E
:1032D0007047014601F6E6107047014601F6E71017
:1032E0007047014601F6E8107047014601F6E91003
:1032F0007047014601F6EF107047014601F6F110E4
:1033000070477CB5044604F67820FFF723FB4FF4A2
:1033100028600059C4F8F409D4F8840AC4F8F809FC
:10332000FE49D4F8880A04F05DFCC4F8FC09D4F81E
:103330008C0AC4F8000AD4F8900A04F6F414206148
:10334000206804F073FAF64A03C2606804F06EFA6B
:10335000F34AC2E90201E06804F068FAF04AC2E9FF
:1033600004012069A4F6F41404F060FAEC4AC2E9FE
:1033700006011046D0E90021104603F07FFD054606
:103380002A46012104F6BC20FFF768FCC4F8A80A0D
:10339000E348D0E90221104603F070FD05462A46B5
:1033A000022104F6BC20FFF759FCC4F8AC0ADC4942
:1033B000D1E90421104603F061FD05462A460321A8
:1033C00004F6BC20FFF74AFCC4F8B00AD448D0E9A0
:1033D0000621104603F052FD05462A46042104F654
:1033E000BC20FFF73BFC04F6A824E060D4E9000110
:1033F00004F048FA0646A16804F044FA0546E1687C
:1034000004F040FA2061E068009094E80E00A4F611
:10341000A82404F5316000F067FD04F5316000F088
:103420004AFD00788DF8040004F5316000F043FD9A
:1034300040788DF805007CBD2DE9F8430446204610
:10344000FFF75FFF00BFB749D4F8B80A04F096FB56
:10345000F9D304F5316000F02EFD00788DF80000FE
:1034600004F5316000F027FD40788DF801004FF041
:1034700000093CE000F000FA04F53B64C4E90001F7
:10348000D4E902532A46D4E90071384604F0E4F83E
:10349000C4E90401D4E90451A4F53B64A24AA34B56
:1034A000284604F0A3F822D204F53B64D4E90001D5
:1034B000C4E90201207EA4F53B649DF80010401A87
:1034C000052806DC94F8C90B9DF80110401A052860
:1034D00001DD4FF000099DF8000084F8C80B9DF84D
:1034E000010084F8C90B09F1010000F0FF09B9F1EE
:1034F0004B0FBFDB0120BDE8F88310B504468C4AB2
:10350000012104F52D60FDF783FA894A022104F5B3
:103510002D60FDF77DFA0221864800F00CFA864AFC
:10352000012104F52D60FDF773FA834A022104F5A9
:103530002D60FDF76DFA03217E4800F01FFA10BDE3
:1035400010B50446002104F53960FFF702F820B9F0
:10355000002104F53960FEF7FCFF10BD10B50446EC
:103560007649D4F8B80A04F009FC06D2012084F8A0
:10357000CA0B0020C4F8CC0B02E0002084F8CA0B70
:1035800094F8CA0B01283FD104F5316000F093FC98
:1035900040780A282DDD04F5316000F08CFC0078BD
:1035A000282809DA0E2104F60430FEF732FF042140
:1035B00004F6F820FEF72DFF04F5316000F07BFCE7
:1035C000007849280ADD042104F60430FEF721FFC3
:1035D0000E2104F6F820FEF71CFF1FE0142104F66C
:1035E000F820FEF716FF142104F60430FEF711FF51
:1035F00014E0002104F6F820FEF70BFF002104F68A
:103600000430FEF706FF09E0002104F6F820FEF77B
:1036100000FF002104F60430FEF7FBFE10BD70B57C
:1036200004460025002604F63830FEF7F3FC054674
:1036300004F66C30FEF7EEFC0646C4F8885BC4F86E
:103640008C6B70BD10B586B0044600231A4619462F
:1036500004F53960FFF75FF820B939A104F53A7035
:10366000FDF734F904F539616846FEF7EFFF9DE890
:10367000070003AB07C3C4F8A82B06B010BD2DE9A3
:10368000F04F9BB082460AF5C860FCF7DBFF0028CC
:1036900013DD0AF5C860FCF7D5FF044622460AF69A
:1036A00098110AF5C860FCF7B9FF22460AF698118E
:1036B0000AF5C860FCF72DFF00BF24A00068199030
:1036C0000AF5316000F0F7FB00788DF865000AF527
:1036D000316000F0F0FB40788DF866000AF531604B
:1036E00000F0E9FB407817900AF5316000F0E3FB49
:1036F00000781490DAF8B80A04F098F88046894601
:10370000DAF8B40A04F092F804460D46DAF8B00A82
:1037100004F08CF8CDE90A011AE000000000C8426C
:10372000A80C002000000C42FCA9F1D24D62603FC1
:103730000000204198000020000070420000A040DE
:103740006572726F720A0A0A00000000AA00000087
:10375000DAF8AC0A04F06AF8CDE90401DAF8A80A4C
:1037600004F064F806460F462FA10AF53A70FDF7FB
:10377000ADF832463B460190FDF742F82BA102908E
:10378000FDF7A4F828A10390FDF7A0F88346DDE932
:103790000423FDF735F825A10790FDF797F822A13E
:1037A0000890FDF793F80990DDE90A23FDF728F862
:1037B0001EA10C90FDF78AF81BA10D90FDF786F86D
:1037C00022462B460E90FDF71BF818A10F90FDF72F
:1037D0007DF815A11090FDF779F842464B461190FF
:1037E000FDF70EF812A11290FDF770F813901499DE
:1037F000FCF7D7FF10A11590FDF768F81690179900
:10380000FCF7CFFF0DA11890FDF760F81BB0BDE8E5
:10381000F08F10B50A48FFF7CCFA0446094A0A4966
:1038200003F0D6F910BD0000280000002920000098
:1038300029202020202028002E000000290D0A0029
:10384000D8000020000000085D6B00085D4800689B
:10385000401C5C49086070474FF0E021096921F085
:1038600004014FF0E0221161574951611146096985
:1038700041F00301116170472DE9F0474FF0E0215D
:10388000886903F066FD06460022504B03F0DCFB1E
:1038900004460D464B48006803F05BFD06460022D7
:1038A0004B4B03F01DFB804622462B4603F0D4FE13
:1038B000484A03C2484847490CC803C903F0CCFE34
:1038C0000446464A464B03F091FE07D20022404B85
:1038D000404903C903F0C0FE3E4A03C23D48D0E957
:1038E00000103D4AC2E900103A4903C9BDE8F0871B
:1038F0002DE9FC5F83460C46FFF7BEFF05460E46EA
:1039000000BF204603F025FD07460022354B03F09B
:103910009BFB81468A46FFF7AFFF07462A463346A0
:1039200003F09AFE4A465346CDE9000103F024FD18
:10393000E7D3BDE8FC9F2DE9FC5F83460C46FFF70B
:103940009BFF05460E4600BF204603F002FD0746DA
:103950000022254B03F078FB81468A46FFF78CFF57
:1039600007462A46334603F077FE4A465346CDE9DA
:10397000000103F001FDE7D3BDE8FC9F2DE9FC5FEA
:1039800083468A46FFF778FF04460D4600BF50463F
:1039900003F0DFFC06460F46FFF76EFF22462B467C
:1039A000CDE9000103F058FE804632463B4603F065
:1039B000E3FCECD3BDE8FC9F00B50C48FFF74CFFDF
:1039C00000BD00009C00002040548900882A61410D
:1039D0000000F03FA0000020A8000020AE47E17AE0
:1039E00014AEEF3F80842E4100408F4098000020AD
:1039F00010B504462078232811DB207841280EDCFE
:103A0000607801280BDB6078642808DC322160686C
:103A1000FEF7FFFC3221A068FEF7FBFC3FE02078B8
:103A200023280EDA607801280BDB6078642808DC34
:103A300014216068FEF7EDFC3221A068FEF7E9FC76
:103A40002DE02078642811DC207841280EDD607894
:103A500001280BDB6078642808DC32216068FEF7FF
:103A6000D8FC1421A068FEF7D4FC18E02078642864
:103A70000BDC6078012808DA00216068FEF7C9FCD9
:103A80000021A068FEF7C5FC09E00020A07300211A
:103A90006068FEF7BEFC0021A068FEF7BAFC10BD0E
:103AA0002DE9F04104460F4615461E46DDF8188004
:103AB00039466068FEF7FFFC2946A068FEF7FBFC6C
:103AC00031466068FEF7A5FC4146A068FEF7A1FC00
:103AD000BDE8F0812DE9F84F8046AD274FF0000991
:103AE0004FF0000A322698F8005098F80140322D25
:103AF0000DD1322C0BD10021D8F80400FEF789FC3F
:103B00000021D8F80800FEF784FCBDE8F88F322DBC
:103B100014DDA4F1320064214843A5F1320190FB89
:103B2000F1F01FFA80F9C4F1320064214843A5F195
:103B3000320190FBF1F01FFA80FA15E0322D13DA12
:103B4000A4F1320064214843C5F1320190FBF1F049
:103B50001FFA80F9C4F1320064214843C5F13201F3
:103B600090FBF1F01FFA80FAA5F132004043A4F176
:103B700032010A4601FB020106FB06F081420ADD22
:103B80000021D8F80400FEF744FC0021D8F8080012
:103B9000FEF73FFCB9E7322D01D1322C03DC322C89
:103BA00012DDB94510DBA4F132004FF6FF7101EAD6
:103BB00040000090A4F1320001EA400301221146C6
:103BC0004046FFF76DFFE1E0322C2FDB322D2DDD7B
:103BD000B9452BDAA5F132014943A4F1320213466B
:103BE00002FB031003F09EFF009002F0EBFF834600
:103BF00003F078FF86B2A7EB09006421484390FBED
:103C0000F7F0C0F1640071004843642190FBF1F0CB
:103C10001FFA80FB4FF6FF7000EA460301221146AF
:103C20004046CDF800B0FFF73BFFAFE0322C2FDB72
:103C3000322D2DDAB9452BDAC5F132014943A4F111
:103C40003202134602FB031003F06CFF009002F0F7
:103C5000B9FF834603F046FF86B2A7EB0900642153
:103C6000484390FBF7F0C0F16400710048436421C1
:103C700090FBF1F01FFA80FB4FF6FF7000EA460060
:103C80005B460122114600904046FFF709FF7DE0A8
:103C9000322D01D1322C03DB322C12DABA4510DB83
:103CA000C4F132004FF6FF7101EA40000090C4F108
:103CB000320001EA4003002211464046FFF7F0FEC1
:103CC00064E0322C30DA322D2EDDBA452CDAA5F143
:103CD00032014943C4F13202C4F1320302FB031042
:103CE00003F020FF009002F06DFF834603F0FAFE20
:103CF00086B2A7EB0A006421484390FBF7F0C0F1BD
:103D0000640071004843642190FBF1F01FFA80FBCE
:103D10004FF6FF7000EA4603002211464046CDF8F8
:103D200000B0FFF7BDFE31E0322C2FDA322D2DDA54
:103D3000BA452BDAC5F132014943C4F13202C4F16C
:103D4000320302FB031003F0EDFE009002F03AFF95
:103D5000834603F0C7FE86B2A7EB0A0064214843FE
:103D600090FBF7F0C0F1640071004843642190FBC0
:103D7000F1F01FFA80FB4FF6FF7000EA46005B4649
:103D80000022114600904046FFF78AFE00BFBCE6C5
:103D90002DE9F0410446217864225143232291FB0E
:103DA000F2F101EB8101080100EBD071C1F34F0684
:103DB0002178C1F1640164225143232291FBF2F185
:103DC00001EB8101080100EBD071C1F34F072078AE
:103DD00023281BDB2078412818DC6078012815DBBC
:103DE0006078642812DC6078401E00EB401000EB25
:103DF0004000642190FBF1F085B229466068FEF72F
:103E000008FB2946A068FEF704FB47E0207823283A
:103E100012DA607801280FDD607864280CDC6420F9
:103E200096FBF0F085B229466068FEF7F2FA502161
:103E3000A068FEF7EEFA31E02078642815DC2078DF
:103E4000412812DB607801280FDB607864280CDCE5
:103E5000642097FBF0F085B250216068FEF7D9FA34
:103E60002946A068FEF7D5FA18E0207864280BDC14
:103E70006078012808DA00216068FEF7CAFA00219C
:103E8000A068FEF7C6FA09E00020A0730021606870
:103E9000FEF7BFFA0021A068FEF7BBFABDE8F0818B
:103EA0004160826000238373838170470A780270C7
:103EB0004A7842707047704710B50446E07B01288D
:103EC00004D0022806D003280CD107E02046FFF7D3
:103ED0008FFD07E02046FFF7FDFD03E02046FFF7DA
:103EE00057FF00BF00BF10BD2DE9F84F04460D4637
:103EF00016461F463146284603F0C4FC394600905A
:103F000003F0C0FC83460A9903F0BCFC81463946A5
:103F10001C4803F067FE834631461A4803F062FEF0
:103F20005946009003F0AEFC8246494603F018FD66
:103F3000804603F0D7FD20703146284603F0A2FCEE
:103F40003946009003F09EFC83460A9903F09AFCE0
:103F5000814631460B4803F045FE83462946094811
:103F600003F040FE5946009003F08CFC824649461F
:103F700003F0F6FC804603F0B5FD6070BDE8F88FF5
:103F8000704700000000C8420948804709480047C0
:103F9000FEE7FEE7FEE7FEE7FEE7FEE7FEE7FEE7F9
:103FA000FEE7FEE704480549054A064B7047000056
:103FB000A7400008ED000008280D0020281300206D
:103FC000280F0020280F00200CB500200190009041
:103FD0006C48006840F480306A49086000BF694856
:103FE000006800F4003000900198401C0190009897
:103FF00018B90198B0F5A06FF1D16248006800F4DB
:10400000003010B10120009001E0002000900098E5
:10401000012843D15C48006840F010005A4908600C
:104020000846006820F0030008600846006840F079
:10403000020008605348406852494860084640689A
:1040400048600846406840F4806048600846406820
:1040500020F47C1048600846406840F4E81048604E
:104060000846006840F08070086000BF454800685E
:1040700000F000700028F9D04248406820F00300AA
:10408000404948600846406840F00200486000BF70
:104090003C48406800F00C000828F9D10CBD10B570
:1040A000FFF792FF10BD10B53648006840F00100E0
:1040B000344908600846406834490840314948603E
:1040C00008460068324908402E49086008460068E2
:1040D00020F4802008600846406820F4FE00486014
:1040E0004FF41F008860FFF7DAFF4FF000602949A6
:1040F000086010BD10B5002100200022214B5B6834
:1041000003F00C0121B1042906D0082928D107E0C9
:10411000214B224C236027E01F4B204C236023E0DF
:10412000184B5B6803F47010164B5B6803F4803225
:10413000022303EB904022B9194B4343174C2360F1
:104140000DE0104B5B6803F4003323B1144B434381
:10415000124C236003E0104B4343104C236003E0F8
:104160000D4B0E4C236000BF00BF064B5B68C3F3D2
:1041700003130C4CE15C094B1B68CB40074C2360DC
:1041800010BD000000100240002002400000FFF8B7
:10419000FFFFF6FE08ED00E000127A00B0000020FC
:1041A00000093D00B400002031490143314A11604B
:1041B000704770B5002100230F22C47804B32D4C42
:1041C000246804F4E064C4F5E064210AC1F1040346
:1041D000CA40447804FA03F1847814402143090169
:1041E000254C0678A155047804F01F050124AC4045
:1041F00005786D11AD0005F1E025C5F8004109E035
:10420000047804F01F050124AC401C4D067876119B
:1042100045F8264070BD1A4A0A400243154B1B1F41
:104220001A60704739B1134A121D12680243114BCC
:104230001B1D1A6006E00F4A121D126882430D4BC7
:104240001B1D1A607047042808D14FF0E02109694E
:1042500041F004014FF0E022116107E04FF0E0214E
:10426000096921F004014FF0E0221161704700005C
:104270000000FA050CED00E000E400E080E100E061
:1042800080FFFF1F10B50446FA48844208D101217F
:10429000401501F00FF90021601501F00BF917E04E
:1042A000F548844208D10121001501F003F90021ED
:1042B000201501F0FFF80BE0F048844208D10121FD
:1042C000C80301F0F7F800214FF4004001F0F2F8C4
:1042D00010BD30B50246002000235068E84C204055
:1042E0000D790C6844EA0524204350609068E54C41
:1042F0002040D1E902542C434D7944EA450420433F
:104300009060D06A20F470000C7C641EE4B22343F9
:1043100040EA0350D06230BD00210160017141715B
:104320008160C16001210174704721B1826842F04F
:104330000102826003E0826822F00102826070471D
:1043400021B1826842F48072826003E0826822F4C4
:1043500080728260704710B50023CBB21AB14468F6
:104360001C43446002E044689C43446010BD816883
:1043700041F0080181607047014600208A6802F020
:1043800008020AB1012000E000207047816841F076
:10439000040181607047014600208A6802F004022F
:1043A0000AB1012000E00020704721B1826842F488
:1043B000A002826003E0826822F4A002826070475B
:1043C000014600208A6802F480020AB1012000E060
:1043D0000020704710B50A4600210023416821F4EF
:1043E0006041531E41EA4331416010BD21B1426832
:1043F00042F40062426003E0426822F400624260DC
:104400007047F0B504460D4600200021092D11DD4E
:10441000E068A5F10A0606EB4607072606FA07F14B
:104420008843A5F10A0606EB460603FA06F108439F
:10443000E0600CE0206905EB4507072606FA07F166
:10444000884305EB450603FA06F108432061072A75
:104450000FDA606B561E06EB86071F2606FA07F179
:104460008843561E06EB860605FA06F1084360638C
:1044700022E00D2A0FDA206BD61F06EB86071F26D7
:1044800006FA07F18843D61F06EB860605FA06F101
:104490000843206310E0E06AA2F10D0606EB8607F0
:1044A0001F2606FA07F18843A2F10D0606EB8606E1
:1044B00005FA06F10843E062F0BD21B1826842F4DA
:1044C0008012826003E0826822F48012826070476A
:1044D0000146C86C80B2704766484C30006870472F
:1044E00021B1426842F48062426003E0426822F4F3
:1044F00080624260704721B1426842F4805242605B
:1045000003E0426822F48052426070470A4600216C
:10451000816821F4E04111438160704721B18268D4
:1045200042F40042826003E0826822F4004282602A
:10453000704721B1826842F40212826003E082680F
:1045400022F4021282607047014600208A6802F459
:1045500000120AB1012000E000207047F0B50446C7
:104560001546002000220026092911DDE068A1F18E
:104570000A0707EB470C072707FA0CF29043A1F153
:104580000A0707EB470703FA07F21043E0600CE065
:10459000206901EB410C072707FA0CF2904301EB6D
:1045A000410703FA07F210432061A06BC0F30156E4
:1045B000EF1C06F1010CA7EB0C0707EB870C1F277C
:1045C00007FA0CF29043EF1C06F1010CA7EB0C0765
:1045D00007EB870701FA07F21043A063F0BD10B59F
:1045E0000A4600210023816B21F44011531E41EA49
:1045F0000351816310BD08B5002300930090009B18
:104600000B440093009B1A6008BD08B502460020C9
:104610000090009201F12800009B1844009000983F
:10462000006880B208BD0A4600214168164B194057
:104630001143416070474162826270470A4600211F
:10464000416821F01F0111434160704740B10949A1
:104650000831096841F40001064A0832116007E098
:1046600004490831096821F40001024A0832116046
:10467000704700000024014000280140003C014038
:10468000FFFEF0FFFDF7F1FFFFFD3FFF02460020B8
:1046900013680B400BB1012000E000207047CA43B3
:1046A0000260704770B502460020002300240B1200
:1046B0005568CEB205EA060415681D4015B10CB167
:1046C000012000E0002070BD00220A12D3430360E5
:1046D0007047000001684FF6FE7211400160002132
:1046E000016041608160C1608D49884208D18C4978
:1046F0000839496841F00F01894A083A51608AE057
:1047000087491431884208D185490839496841F000
:10471000F001834A083A51607DE08149283188429E
:1047200008D17F490839496841F470617C4A083AE8
:10473000516070E07A493C31884208D178490839A3
:10474000496841F47041764A083A516063E074491F
:104750005031884208D172490839496841F47021C2
:104760006F4A083A516056E06D496431884208D179
:104770006B490839496841F47001694A083A516047
:1047800049E067497831884208D165490839496864
:1047900041F07061624A083A51603CE061498842E8
:1047A00006D1011F096841F00F01021F116032E0BC
:1047B0005C491431884208D15A49091F096841F0FF
:1047C000F001584A121F116025E0564928318842ED
:1047D00008D15449091F096841F47061514A121FF8
:1047E000116018E04F493C31884208D14D49091FFA
:1047F000096841F470414B4A121F11600BE04949AE
:104800005031884207D14749091F096841F4702196
:10481000444A121F1160704710B50022026847F623
:10482000F0739A430C6A8B6823430C6923434C69E9
:1048300023438C692343CC6923434C6A23438C6A0A
:1048400023431A430260CB6843600B6883604B6864
:10485000C36010BD0021016041608160C1600161E1
:1048600041618161C161016241628162704721B130
:10487000026842F00102026004E002684FF6FE7333
:104880001A40026070471AB103680B43036002E0EC
:1048900003688B4303607047416070470146486876
:1048A00080B2704701460020002201F080531BB106
:1048B0001C4B083B1A6802E0194B083B1A6802EAD5
:1048C00001030BB1012000E00020704700F080518F
:1048D00019B11449091F086002E0114908394860FC
:1048E000704701460020002201F080531BB10D4BA0
:1048F000083B1A6802E00A4B083B1A6802EA010307
:104900000BB1012000E00020704700F0805119B188
:104910000449091F086002E00149083948607047EE
:104920000800024008040240002044490860091DB4
:104930000860091D0860091D086041483F4914319D
:104940000860704700213D498279002A3AD00A4622
:10495000126803689A430B461A600A1D12680368BE
:104960009A430B1D1A60027911440A6803681A43BE
:104970000A60324A0832126803689A432F4B0833A0
:104980001A601A1D126803689A432C4B0C331A6084
:104990004279102A0ED11A1F126803681A43274B56
:1049A00008331A601A1D126803681A43234B0C332C
:1049B0001A600DE02149427911440A6803681A43DC
:1049C0000A6005E0027911440A6803689A430A60A4
:1049D00070470021016001710C214171002181713A
:1049E00070471649103109680143144A10321160AA
:1049F000704701460020114A143212680A400AB179
:104A0000012000E0002070470C4914310860704715
:104A1000014600200022094B1B6803EA0102074BF4
:104A200014331B680B4013B10AB1012000E00020D1
:104A300070470249143108607047000000040140CB
:104A4000FFFF0F0010B50446CC48844208D1012175
:104A5000042000F02FFD0021042000F02BFD46E093
:104A6000C748844208D10121082000F023FD00211D
:104A7000082000F01FFD3AE0C248844208D101211D
:104A8000102000F017FD0021102000F013FD2EE093
:104A9000BD48844208D10121202000F00BFD0021F7
:104AA000202000F007FD22E0B848844208D101210F
:104AB000402000F0FFFC0021402000F0FBFC16E04D
:104AC000B348844208D10121802000F0F3FC00218A
:104AD000802000F0EFFC0AE0AE48844207D10121BB
:104AE000801500F0E7FC0021A01500F0E3FC10BDEC
:104AF00010B50121084600F0DDFC0021012000F086
:104B0000D9FC10BD2DE9F041024600250026002009
:104B100000230024002791F803C00CF00F0591F842
:104B200003C00CF0100CBCF1000F03D091F802C0D0
:104B30004CEA050591F800C0BCF1000F31D01468B3
:104B400000202BE04FF0010C0CFA00F3B1F800C08C
:104B50000CEA03069E4220D183004FF00F0C0CFAA2
:104B600003F7BC4305FA03FC4CEA040491F803C0C4
:104B7000BCF1280F06D14FF0010C0CFA00FCC2F872
:104B800014C00AE091F803C0BCF1480F05D14FF002
:104B9000010C0CFA00FCC2F810C0401C0828D1D34C
:104BA0001460B1F800C0BCF1FF0F34DD5468002080
:104BB0002EE000F1080C4FF0010808FA0CF3B1F8F0
:104BC00000C00CEA03069E4221D183004FF00F0C77
:104BD0000CFA03F7BC4305FA03FC4CEA040491F811
:104BE00003C0BCF1280F05D100F1080C08FA0CF83D
:104BF000C2F8148091F803C0BCF1480F07D100F14E
:104C0000080C4FF0010808FA0CF8C2F81080401C9C
:104C10000828CED35460BDE8F0814FF6FF710180C3
:104C2000022181700421C170704702460020936800
:104C30000B400BB1012000E000207047014688685E
:104C400080B2704702460020D3680B400BB10120B0
:104C500000E0002070470146C86880B270470161DB
:104C60007047416170470AB1016100E041617047DE
:104C7000C16070474FF480320A4382618161826172
:104C800082698269704702460020434B18684FF6DC
:104C90008073184040EA021008433F4B1860704789
:104CA0003E49C8617047F0B50A4600230024002140
:104CB000002500F00046B6F1004F02D1364EF169F2
:104CC00001E0354E7168C0F3034583B200F440162D
:104CD000B6F5401F08D121F070612F4E766826F09E
:104CE00070662D4F7E6012E000F48016B6F5801FCE
:104CF00006D1032606FA05F4A14341F0706106E0EF
:104D0000460D360103FA06F6B14341F0706122B157
:104D1000460D360103FA06F6314300F00046B6F1BF
:104D2000004F02D11C4EF16101E01B4E7160F0BDDD
:104D300030B500228B071C0F0F2303FA04F2164B29
:104D400008338C1053F824309343134C08348D10DF
:104D500044F8253023468C1053F824308C07240F58
:104D600000FA04F423430C4C08348D1044F8253029
:104D700030BD0A49DC31086070470000000801407E
:104D8000000C0140001001400014014000180140D7
:104D9000001C0140002001400000014000002042B2
:104DA00010B50446F748844209D10121480500F0B6
:104DB0008EFB00214FF4001000F089FB08E0012178
:104DC000880500F084FB00214FF4800000F07FFB99
:104DD00010BD2DE9F04385B004460D460026B146CE
:104DE0000427DFF8A483A6884FF6C0700640684603
:104DF00000F0D9FADDF80880E448B8FBF0F01FFABB
:104E000080F946EA0906A68020884FF6FE71084020
:104E100020800026DE49286888420CD82868400097
:104E2000B8FBF0F087B2042F00DA04273E4309F103
:104E30000100208427E0E8884BF6FF71884206D104
:104E4000286800EB4000B8FBF0F087B209E0286862
:104E500000EBC00101EB0010B8FBF0F087B247F4A3
:104E60008047C7F30B0008B947F0010747F400403B
:104E700006434FF4967009FB00F04FF47A7190FBF3
:104E8000F1F0401C2084A683208840F0010020809F
:104E900026884FF6F5300640A888698908430643FE
:104EA0002680A88929890843208105B0BDE8F083C0
:104EB00041F288310160002181804BF6FF71C18091
:104EC0000021018141814FF480418181704721B1EE
:104ED000028842F00102028004E002884FF6FE736D
:104EE0001A400280704721B1828842F400628280B9
:104EF00004E082884FF2FF731A408280704721B12C
:104F0000828842F48052828004E082884EF6FF73E9
:104F10001A408280704721B1028842F48072028078
:104F200004E002884FF6FF631A400280704721B107
:104F3000028842F40072028004E002884FF6FF53B8
:104F40001A400280704721B1028842F480620280D8
:104F500004E002884FF6FF331A40028070470A4689
:104F6000002181894FF60173194002F0FE031943B5
:104F70008181704721B1828942F00102828104E07F
:104F800082894FF6FE731A408281704721B10288F0
:104F900042F04002028004E002884FF6BF731A40DC
:104FA000028070471AB183880B43838002E08388B4
:104FB0008B4383807047018270470146088AC0B2E4
:104FC000704712B141F0010102E04FF6FE73194043
:104FD0000182704708B502460020009000920098B8
:104FE000084400900098008808BD21B1028842F46E
:104FF0000042028003E00288C2F30E020280704782
:10500000B1F5006F04D1028842F40062028004E02E
:1050100002884FF2FF731A4002807047B1F5005FBB
:1050200004D1028842F40052028004E002884DF666
:10503000FF731A400280704721B1028842F4805207
:10504000028004E002884EF6FF731A400280704727
:10505000B1F5006F04D1028842F40062028004E0DE
:1050600002884FF2FF731A400280704721B1028814
:1050700042F02002028004E002884FF6DF731A40FB
:10508000028070470146088B0012704721B10288E8
:1050900042F01002028004E002884FF6EF731A40DB
:1050A0000280704721B9028842F08002028004E049
:1050B00002884FF67F731A4002807047B1F5804F27
:1050C00005D0828B4BF6FF731A40828303E0828BFC
:1050D00042F480428283704770B502460024002566
:1050E00000230020958A138B1B0445EA030626F053
:1050F0007F4404EA01068E4201D1012000E0002035
:1051000070BD10B501460020002300228B8A0A8B57
:10511000120443EA020424F07F4010BD0CB502469D
:10512000002000230193009300920B0F019321F0C4
:105130007F41019B1BB1009B1433009303E0090CDA
:10514000009B18330093009B1B680B400BB10120A0
:1051500000E000200CBD002221F07F42D343838277
:10516000704730B5024600200023948801F0E065C6
:1051700004EA154321F07F41948A0C4054B14BB1AD
:10518000012008E00054004000127A0040420F0065
:10519000A0860100002030BD002221F07F42D343D1
:1051A00083827047DF48006840F00100DD490860F5
:1051B00008464068DC490840DA494860084600680B
:1051C000DA490840D74908600846006820F4802082
:1051D00008600846406820F4FE0048604FF41F0055
:1051E00088607047CF49096821F48031CD4A116049
:1051F0001146096821F480211160B0F5803F03D089
:10520000B0F5802F0ED106E0C649096841F480311F
:10521000C44A116007E0C349096841F4A021C14AAA
:10522000116000E000BF00BF704710B501460022CA
:10523000002300204A11012A02D1BA4C236806E05B
:10524000022A02D1B74C236A01E0B64C636A01F02E
:105250001F02012494401C400CB1012000E00020FA
:1052600010BD38B5002000900024002500BF31207B
:10527000FFF7DBFF05460098401C00900098B0F552
:10528000A06F01D0002DF2D03120FFF7CEFF08B182
:10529000012400E00024204638BD01460020A14A38
:1052A000106820F0F80040EAC10010607047A04983
:1052B00008607047024600209A4B586820F47C1022
:1052C00042EA01031843974B5860704798490866B3
:1052D000704701460020934A506820F003000843BD
:1052E000506070478F48406800F00C0070470146DE
:1052F00000208C4A506820F0F0000843506070474E
:1053000001460020874A506820F4E060084350605E
:10531000704701460020834A506820F4605040EAFC
:10532000C1005060704729B17E4A527A02437D4BDA
:105330005A7204E07B4A527A82437A4B5A7270471F
:105340007B49D8310860704701460020754A506893
:1053500020F440400843506070470021714A2032D9
:105360001170704A82F82010012802D004280AD156
:1053700004E001216B4A2032117005E00521694AE1
:105380002032117000E000BF00BF7047694908601B
:1053900070476449096A0143624A1162704765496E
:1053A00044390860704730B50021002200240023F2
:1053B0005C4D6D6805F00C0121B1042905D0082968
:1053C00023D105E05C4D056022E05B4D05601FE0E8
:1053D000544D6D6805F47012524D6D6805F48034BB
:1053E000022505EB92421CB9544D554305600BE074
:1053F0004C4D6D6805F400351DB1504D55430560A9
:1054000002E04D4D5543056002E04B4D056000BF85
:1054100000BF444D6D6805F0F0010909484D6B5C13
:105420000568DD4045603F4D6D6805F4E061090A9F
:10543000434D6B5C4568DD4085603A4D6D6805F411
:105440006051C90A3E4D6B5C4568DD40C560354D15
:105450006D6805F44041890B3A4D6B5CC568B5FB3E
:10546000F3F5056130BD29B12E4A526902432D4B37
:105470005A6104E02B4A526982432A4B5A617047B1
:1054800029B1284A92690243264B9A6104E0254AD1
:1054900092698243234B9A61704729B1214AD269AC
:1054A0000243204BDA6104E01E4AD26982431D4B5D
:1054B000DA61704729B11B4AD2680243194BDA609E
:1054C00004E0184AD2688243164BDA60704729B16B
:1054D000144A12690243134B1A6104E0114A12691B
:1054E0008243104B1A617047124940390860704777
:1054F0000F49C86470470B49C87170470948406A32
:1055000040F0807007494862704701460020054A14
:1055100092680A400AB1012000E00020704701496A
:1055200088727047001002400000FFF8FFFFF6FE8F
:10553000000042428004424200127A0000093D000D
:10554000C4000020D400002010B50446FE48844268
:1055500008D10121C014FFF7ADFF0021E014FFF7CF
:10556000A9FFC4E0B4F1804F08D101210846FFF73C
:10557000AEFF00210120FFF7AAFFB8E0F348844204
:1055800008D101210220FFF7A2FF00210220FFF72E
:105590009EFFACE0EE48844208D101210420FFF7D1
:1055A00096FF00210420FFF792FFA0E0E948844223
:1055B00008D101210820FFF78AFF00210820FFF70A
:1055C00086FF94E0E448844208D101211020FFF7CF
:1055D0007EFF00211020FFF77AFF88E0DF48844239
:1055E00008D101212020FFF772FF00212020FFF7C2
:1055F0006EFF7CE0DA48844208D101214014FFF7B5
:1056000059FF00216014FFF755FF70E0D548844230
:1056100009D10121C804FFF74DFF00214FF40020FC
:10562000FFF748FF63E0D048844209D10121080513
:10563000FFF740FF00214FF48010FFF73BFF56E0DB
:10564000CA48844209D101214805FFF733FF0021F0
:105650004FF40010FFF72EFF49E0C548844208D1FF
:1056600001214020FFF733FF00214020FFF72FFFEB
:105670003DE0C048844208D101218020FFF727FF88
:1056800000218020FFF723FF31E0BB48844208D18E
:1056900001218015FFF71BFF0021A015FFF717FF61
:1056A00025E0B648844209D101210804FFF702FF32
:1056B00000214FF48030FFF7FDFE18E0B04884422F
:1056C00009D101214804FFF7F5FE00214FF4003015
:1056D000FFF7F0FE0BE0AB48844208D101218804BB
:1056E000FFF7E8FE00214FF48020FFF7E3FE10BD36
:1056F00000220288944B98420ED0994B98420BD0CE
:10570000B0F1804F08D0914B984205D0904B984211
:1057100002D0904B984204D14FF68F731A404B88B9
:105720001A438D4B984207D08C4B984204D04FF6C9
:10573000FF431A40CB881A4302808B8883850B88ED
:105740000385814B98420BD0854B984208D08B4BF8
:10575000984205D08A4B984202D08A4B984201D198
:105760000B7A038601238382704770B500240022E0
:105770000023058C4FF6FE7635400584028C838825
:10578000048B4FF68F752C40B51E2C400D882C4392
:10579000751E2A400D892A434D882A436A4DA84226
:1057A0000BD06F4DA84208D0744DA84205D0744D5F
:1057B000A84202D0734DA84213D14FF6F7752A4084
:1057C0004D892A434FF6FB752A408D882A434FF6B0
:1057D000FF652B404FF6FF552B408D892B43CD891C
:1057E0002B4383800483CD888586028470BD70B589
:1057F000002400220023058C4FF6EF763540058407
:10580000028C8388048B48F6FF752C404FF6FF45C9
:105810002C400D884FF6FF7606EA05252C434FF6FF
:10582000DF752A400D8906EA05152A434D8806EAE8
:1058300005152A43444DA84202D0494DA8421DD126
:105840004FF67F752A404D894FF6FF7606EA05151B
:105850002A434FF6BF752A408D8806EA05152A436C
:105860004FF6FF352B404FF2FF752B408D8906EA2E
:1058700085052B43CD8906EA85052B438380048368
:10588000CD880587028470BD70B5002400220023F6
:10589000058C4FF6FF6635400584028C8388848B27
:1058A0004FF68F752C404FF6FC752C400D882C431D
:1058B0004FF6FF552A400D894FF6FF7606EA05257B
:1058C0002A434D8806EA05252A431F4DA84202D0E7
:1058D000234DA8421DD14FF2FF752A404D894FF646
:1058E000FF7606EA05252A434FF6FF352A408D88C4
:1058F00006EA05252A434EF6FF752B404DF6FF7547
:105900002B408D8906EA05152B43CD8906EA05153E
:105910002B4383808483CD888587028470BD70B5D6
:10592000002200230024058C4EF6FF7635400584C6
:10593000038C8488828B48F6FF752A404FF6FF451A
:105940002A400D8820E00000002C014000040040A7
:1059500000080040000C004000100040001400400F
:1059600000340140004C014000500140005401400F
:1059700000180040001C0040002000400040014092
:1059800000440140004801404FF6FF7606EA052535
:105990002A434DF6FF752B400D8906EA05352B434A
:1059A0004D8806EA05352B43FA4DA84202D0FA4D40
:1059B000A84208D14BF6FF752C408D894FF6FF7633
:1059C00006EA85152C4384808283CD88A0F8405058
:1059D000038470BD828B4FF2FF331A408283828B27
:1059E0004FF6FF7303EA01231A4382837047F0B531
:1059F0000C461546002200210026078C4EF6FF7C3F
:105A000007EA0C070784828B018C4FF6FF7707EAC1
:105A1000043640F6FF473A404FF6FF7707EA05277E
:105A20003A434FF6FF7707EA03373A43D94FB84274
:105A30000ED0D94FB8420BD0B0F1804F08D0D74F1D
:105A4000B84205D0D64FB84202D0D64FB84206D1A0
:105A50004DF6FF77394046F48057394305E047F665
:105A6000FF57394044F48057394382830184F0BDA5
:105A7000828B4FF6F3731A408283828B0A438283B0
:105A80007047F0B50C461546002200210026078C11
:105A90004FF6FF6C07EA0C070784828B018C4FF6E8
:105AA000FF7707EA04264FF60C773A404FF6FF7768
:105AB00007EA03172F433A43B64FB8420ED0B64F0A
:105AC000B8420BD0B0F1804F08D0B44FB84205D0E7
:105AD000B34FB84202D0B34FB84206D14FF6FF578A
